{
  "contractName": "SolnSquareVerifier",
  "abi": [
    {
      "constant": true,
      "inputs": [
        {
          "name": "interfaceId",
          "type": "bytes4"
        }
      ],
      "name": "supportsInterface",
      "outputs": [
        {
          "name": "",
          "type": "bool"
        }
      ],
      "payable": false,
      "stateMutability": "view",
      "type": "function"
    },
    {
      "constant": true,
      "inputs": [
        {
          "name": "tokenId",
          "type": "uint256"
        }
      ],
      "name": "getApproved",
      "outputs": [
        {
          "name": "",
          "type": "address"
        }
      ],
      "payable": false,
      "stateMutability": "view",
      "type": "function"
    },
    {
      "constant": false,
      "inputs": [
        {
          "name": "to",
          "type": "address"
        },
        {
          "name": "tokenId",
          "type": "uint256"
        }
      ],
      "name": "approve",
      "outputs": [],
      "payable": false,
      "stateMutability": "nonpayable",
      "type": "function"
    },
    {
      "constant": false,
      "inputs": [
        {
          "name": "p",
          "type": "bool"
        }
      ],
      "name": "setPaused",
      "outputs": [],
      "payable": false,
      "stateMutability": "nonpayable",
      "type": "function"
    },
    {
      "constant": true,
      "inputs": [],
      "name": "totalSupply",
      "outputs": [
        {
          "name": "",
          "type": "uint256"
        }
      ],
      "payable": false,
      "stateMutability": "view",
      "type": "function"
    },
    {
      "constant": false,
      "inputs": [
        {
          "name": "from",
          "type": "address"
        },
        {
          "name": "to",
          "type": "address"
        },
        {
          "name": "tokenId",
          "type": "uint256"
        }
      ],
      "name": "transferFrom",
      "outputs": [],
      "payable": false,
      "stateMutability": "nonpayable",
      "type": "function"
    },
    {
      "constant": false,
      "inputs": [
        {
          "name": "_myid",
          "type": "bytes32"
        },
        {
          "name": "_result",
          "type": "string"
        }
      ],
      "name": "__callback",
      "outputs": [],
      "payable": false,
      "stateMutability": "nonpayable",
      "type": "function"
    },
    {
      "constant": true,
      "inputs": [
        {
          "name": "owner",
          "type": "address"
        },
        {
          "name": "index",
          "type": "uint256"
        }
      ],
      "name": "tokenOfOwnerByIndex",
      "outputs": [
        {
          "name": "",
          "type": "uint256"
        }
      ],
      "payable": false,
      "stateMutability": "view",
      "type": "function"
    },
    {
      "constant": false,
      "inputs": [
        {
          "name": "_myid",
          "type": "bytes32"
        },
        {
          "name": "_result",
          "type": "string"
        },
        {
          "name": "_proof",
          "type": "bytes"
        }
      ],
      "name": "__callback",
      "outputs": [],
      "payable": false,
      "stateMutability": "nonpayable",
      "type": "function"
    },
    {
      "constant": false,
      "inputs": [
        {
          "name": "to",
          "type": "address"
        },
        {
          "name": "tokenId",
          "type": "uint256"
        }
      ],
      "name": "mint",
      "outputs": [
        {
          "name": "",
          "type": "bool"
        }
      ],
      "payable": false,
      "stateMutability": "nonpayable",
      "type": "function"
    },
    {
      "constant": false,
      "inputs": [
        {
          "name": "from",
          "type": "address"
        },
        {
          "name": "to",
          "type": "address"
        },
        {
          "name": "tokenId",
          "type": "uint256"
        }
      ],
      "name": "safeTransferFrom",
      "outputs": [],
      "payable": false,
      "stateMutability": "nonpayable",
      "type": "function"
    },
    {
      "constant": true,
      "inputs": [
        {
          "name": "index",
          "type": "uint256"
        }
      ],
      "name": "tokenByIndex",
      "outputs": [
        {
          "name": "",
          "type": "uint256"
        }
      ],
      "payable": false,
      "stateMutability": "view",
      "type": "function"
    },
    {
      "constant": true,
      "inputs": [
        {
          "name": "tokenId",
          "type": "uint256"
        }
      ],
      "name": "ownerOf",
      "outputs": [
        {
          "name": "",
          "type": "address"
        }
      ],
      "payable": false,
      "stateMutability": "view",
      "type": "function"
    },
    {
      "constant": true,
      "inputs": [
        {
          "name": "owner",
          "type": "address"
        }
      ],
      "name": "balanceOf",
      "outputs": [
        {
          "name": "",
          "type": "uint256"
        }
      ],
      "payable": false,
      "stateMutability": "view",
      "type": "function"
    },
    {
      "constant": true,
      "inputs": [],
      "name": "getOwner",
      "outputs": [
        {
          "name": "",
          "type": "address"
        }
      ],
      "payable": false,
      "stateMutability": "view",
      "type": "function"
    },
    {
      "constant": false,
      "inputs": [
        {
          "name": "to",
          "type": "address"
        },
        {
          "name": "approved",
          "type": "bool"
        }
      ],
      "name": "setApprovalForAll",
      "outputs": [],
      "payable": false,
      "stateMutability": "nonpayable",
      "type": "function"
    },
    {
      "constant": false,
      "inputs": [
        {
          "name": "from",
          "type": "address"
        },
        {
          "name": "to",
          "type": "address"
        },
        {
          "name": "tokenId",
          "type": "uint256"
        },
        {
          "name": "_data",
          "type": "bytes"
        }
      ],
      "name": "safeTransferFrom",
      "outputs": [],
      "payable": false,
      "stateMutability": "nonpayable",
      "type": "function"
    },
    {
      "constant": true,
      "inputs": [
        {
          "name": "tokenId",
          "type": "uint256"
        }
      ],
      "name": "tokenURI",
      "outputs": [
        {
          "name": "",
          "type": "string"
        }
      ],
      "payable": false,
      "stateMutability": "view",
      "type": "function"
    },
    {
      "constant": true,
      "inputs": [
        {
          "name": "owner",
          "type": "address"
        },
        {
          "name": "operator",
          "type": "address"
        }
      ],
      "name": "isApprovedForAll",
      "outputs": [
        {
          "name": "",
          "type": "bool"
        }
      ],
      "payable": false,
      "stateMutability": "view",
      "type": "function"
    },
    {
      "constant": false,
      "inputs": [
        {
          "name": "newOwner",
          "type": "address"
        }
      ],
      "name": "transferOwnership",
      "outputs": [],
      "payable": false,
      "stateMutability": "nonpayable",
      "type": "function"
    },
    {
      "inputs": [
        {
          "name": "verifierAddress",
          "type": "address"
        }
      ],
      "payable": false,
      "stateMutability": "nonpayable",
      "type": "constructor"
    },
    {
      "anonymous": false,
      "inputs": [
        {
          "indexed": false,
          "name": "tokenId",
          "type": "uint256"
        },
        {
          "indexed": false,
          "name": "_address",
          "type": "address"
        }
      ],
      "name": "SolutionAdded",
      "type": "event"
    },
    {
      "anonymous": false,
      "inputs": [
        {
          "indexed": true,
          "name": "from",
          "type": "address"
        },
        {
          "indexed": true,
          "name": "to",
          "type": "address"
        },
        {
          "indexed": true,
          "name": "tokenId",
          "type": "uint256"
        }
      ],
      "name": "Transfer",
      "type": "event"
    },
    {
      "anonymous": false,
      "inputs": [
        {
          "indexed": true,
          "name": "owner",
          "type": "address"
        },
        {
          "indexed": true,
          "name": "approved",
          "type": "address"
        },
        {
          "indexed": true,
          "name": "tokenId",
          "type": "uint256"
        }
      ],
      "name": "Approval",
      "type": "event"
    },
    {
      "anonymous": false,
      "inputs": [
        {
          "indexed": true,
          "name": "owner",
          "type": "address"
        },
        {
          "indexed": true,
          "name": "operator",
          "type": "address"
        },
        {
          "indexed": false,
          "name": "approved",
          "type": "bool"
        }
      ],
      "name": "ApprovalForAll",
      "type": "event"
    },
    {
      "anonymous": false,
      "inputs": [
        {
          "indexed": false,
          "name": "triggerAddress",
          "type": "address"
        }
      ],
      "name": "Paused",
      "type": "event"
    },
    {
      "anonymous": false,
      "inputs": [
        {
          "indexed": false,
          "name": "triggerAddress",
          "type": "address"
        }
      ],
      "name": "Unpaused",
      "type": "event"
    },
    {
      "anonymous": false,
      "inputs": [
        {
          "indexed": false,
          "name": "previousOwner",
          "type": "address"
        },
        {
          "indexed": false,
          "name": "currentOwner",
          "type": "address"
        }
      ],
      "name": "OwnershipTransferred",
      "type": "event"
    },
    {
      "constant": false,
      "inputs": [
        {
          "name": "to",
          "type": "address"
        },
        {
          "name": "tokenId",
          "type": "uint256"
        },
        {
          "name": "aX",
          "type": "uint256"
        },
        {
          "name": "aY",
          "type": "uint256"
        },
        {
          "name": "bX",
          "type": "uint256[2]"
        },
        {
          "name": "bY",
          "type": "uint256[2]"
        },
        {
          "name": "cX",
          "type": "uint256"
        },
        {
          "name": "cY",
          "type": "uint256"
        },
        {
          "name": "input",
          "type": "uint256[2]"
        }
      ],
      "name": "mintVerifiedToken",
      "outputs": [],
      "payable": false,
      "stateMutability": "nonpayable",
      "type": "function"
    }
  ],
  "bytecode": "0x60806040523480156200001157600080fd5b5060405160208062003db48339810180604052620000339190810190620003cd565b6040518060400160405280601b81526020017f5564616369747920426c6f636b636861696e2043617073746f6e6500000000008152506040518060400160405280600381526020017f55424300000000000000000000000000000000000000000000000000000000008152506040518060600160405280603f815260200162003d75603f9139336000806101000a81548173ffffffffffffffffffffffffffffffffffffffff021916908373ffffffffffffffffffffffffffffffffffffffff1602179055507f8be0079c531659141344cd1fd0a4f28419497f9722a3daafe3b4186f6b6457e060008060009054906101000a900473ffffffffffffffffffffffffffffffffffffffff166040516200014e9291906200041b565b60405180910390a160008060146101000a81548160ff021916908315150217905550620001886301ffc9a760e01b6200026660201b60201c565b620001a06380ac58cd60e01b6200026660201b60201c565b620001b863780e9d6360e01b6200026660201b60201c565b82600f9080519060200190620001d092919062000308565b508160109080519060200190620001e992919062000308565b5080601190805190602001906200020292919062000308565b506200021b635b5e139f60e01b6200026660201b60201c565b50505080601360006101000a81548173ffffffffffffffffffffffffffffffffffffffff021916908373ffffffffffffffffffffffffffffffffffffffff16021790555050620004ec565b63ffffffff60e01b817bffffffffffffffffffffffffffffffffffffffffffffffffffffffff1916141515156200029c57600080fd5b6001806000837bffffffffffffffffffffffffffffffffffffffffffffffffffffffff19167bffffffffffffffffffffffffffffffffffffffffffffffffffffffff1916815260200190815260200160002060006101000a81548160ff02191690831515021790555050565b828054600181600116156101000203166002900490600052602060002090601f016020900481019282601f106200034b57805160ff19168380011785556200037c565b828001600101855582156200037c579182015b828111156200037b5782518255916020019190600101906200035e565b5b5090506200038b91906200038f565b5090565b620003b491905b80821115620003b057600081600090555060010162000396565b5090565b90565b6000620003c582516200047c565b905092915050565b600060208284031215620003e057600080fd5b6000620003f084828501620003b7565b91505092915050565b6200040481620004b0565b82525050565b620004158162000448565b82525050565b6000604082019050620004326000830185620003f9565b6200044160208301846200040a565b9392505050565b600062000455826200045c565b9050919050565b600073ffffffffffffffffffffffffffffffffffffffff82169050919050565b6000620004898262000490565b9050919050565b600073ffffffffffffffffffffffffffffffffffffffff82169050919050565b6000620004bd82620004c4565b9050919050565b6000620004d182620004d8565b9050919050565b6000620004e5826200045c565b9050919050565b61387980620004fc6000396000f3fe608060405234801561001057600080fd5b50600436106101375760003560e01c806342842e0e116100b85780639a4dbc551161007c5780639a4dbc5514610370578063a22cb4651461038c578063b88d4fde146103a8578063c87b56dd146103c4578063e985e9c5146103f4578063f2fde38b1461042457610137565b806342842e0e146102a65780634f6ccce7146102c25780636352211e146102f257806370a0823114610322578063893d20e81461035257610137565b806323b872dd116100ff57806323b872dd146101f257806327dc297e1461020e5780632f745c591461022a57806338bbfa501461025a57806340c10f191461027657610137565b806301ffc9a71461013c578063081812fc1461016c578063095ea7b31461019c57806316c38b3c146101b857806318160ddd146101d4575b600080fd5b61015660048036036101519190810190612bd6565b610440565b6040516101639190613376565b60405180910390f35b61018660048036036101819190810190612c28565b6104a8565b60405161019391906132cb565b60405180910390f35b6101b660048036036101b191908101906129ad565b61052f565b005b6101d260048036036101cd9190810190612ab1565b6106e0565b005b6101dc610817565b6040516101e9919061355e565b60405180910390f35b61020c600480360361020791908101906128a7565b610824565b005b61022860048036036102239190810190612b03565b610849565b005b610244600480360361023f91908101906129ad565b61088c565b604051610251919061355e565b60405180910390f35b610274600480360361026f9190810190612b57565b610903565b005b610290600480360361028b91908101906129ad565b610908565b60405161029d9190613376565b60405180910390f35b6102c060048036036102bb91908101906128a7565b6109b8565b005b6102dc60048036036102d79190810190612c28565b6109d8565b6040516102e9919061355e565b60405180910390f35b61030c60048036036103079190810190612c28565b610a10565b60405161031991906132cb565b60405180910390f35b61033c60048036036103379190810190612842565b610a4d565b604051610349919061355e565b60405180910390f35b61035a610a9d565b60405161036791906132cb565b60405180910390f35b61038a600480360361038591908101906129e9565b610ac6565b005b6103a660048036036103a19190810190612971565b610cd0565b005b6103c260048036036103bd91908101906128f6565b610e08565b005b6103de60048036036103d99190810190612c28565b610e30565b6040516103eb9190613391565b60405180910390f35b61040e6004803603610409919081019061286b565b610ef9565b60405161041b9190613376565b60405180910390f35b61043e60048036036104399190810190612842565b610f8d565b005b600060016000837bffffffffffffffffffffffffffffffffffffffffffffffffffffffff19167bffffffffffffffffffffffffffffffffffffffffffffffffffffffff1916815260200190815260200160002060009054906101000a900460ff169050919050565b60006104b382611154565b15156104f4576040517f08c379a00000000000000000000000000000000000000000000000000000000081526004016104eb90613433565b60405180910390fd5b6003600083815260200190815260200160002060009054906101000a900473ffffffffffffffffffffffffffffffffffffffff169050919050565b600061053a82610a10565b90508273ffffffffffffffffffffffffffffffffffffffff168173ffffffffffffffffffffffffffffffffffffffff16141515156105ad576040517f08c379a00000000000000000000000000000000000000000000000000000000081526004016105a490613453565b60405180910390fd5b8073ffffffffffffffffffffffffffffffffffffffff163373ffffffffffffffffffffffffffffffffffffffff1614806105ed57506105ec8133610ef9565b5b151561062e576040517f08c379a000000000000000000000000000000000000000000000000000000000815260040161062590613473565b60405180910390fd5b826003600084815260200190815260200160002060006101000a81548173ffffffffffffffffffffffffffffffffffffffff021916908373ffffffffffffffffffffffffffffffffffffffff160217905550818373ffffffffffffffffffffffffffffffffffffffff168273ffffffffffffffffffffffffffffffffffffffff167f8c5be1e5ebec7d5bd14f71427d1e84f3dd0314c0f7b2291e5b200ac8c7c3b92560405160405180910390a4505050565b6000809054906101000a900473ffffffffffffffffffffffffffffffffffffffff1673ffffffffffffffffffffffffffffffffffffffff163373ffffffffffffffffffffffffffffffffffffffff16141515610771576040517f08c379a0000000000000000000000000000000000000000000000000000000008152600401610768906134b3565b60405180910390fd5b80600060146101000a81548160ff021916908315150217905550600060149054906101000a900460ff16156107dc577f62e78cea01bee320cd4e420270b5ea74000d11b0c9f74754ebdbfc544b05a258336040516107cf91906132e6565b60405180910390a1610814565b7f5db9ee0a495bf2e6ff9c91a7834c1ba4fdd244a5e8aa4e537bd38aeae4b073aa3360405161080b91906132e6565b60405180910390a15b50565b6000600880549050905090565b61082e33826111c6565b151561083957600080fd5b61084483838361125b565b505050565b610888828260006040519080825280601f01601f1916602001820160405280156108825781602001600182028038833980820191505090505b50610903565b5050565b600061089783610a4d565b821015156108a457600080fd5b600660008473ffffffffffffffffffffffffffffffffffffffff1673ffffffffffffffffffffffffffffffffffffffff168152602001908152602001600020828154811015156108f057fe5b9060005260206000200154905092915050565b505050565b60008060009054906101000a900473ffffffffffffffffffffffffffffffffffffffff1673ffffffffffffffffffffffffffffffffffffffff163373ffffffffffffffffffffffffffffffffffffffff1614151561099b576040517f08c379a0000000000000000000000000000000000000000000000000000000008152600401610992906134b3565b60405180910390fd5b6109a5838361127f565b6109ae826112a0565b6001905092915050565b6109d383838360405180602001604052806000815250610e08565b505050565b60006109e2610817565b821015156109ef57600080fd5b6008828154811015156109fe57fe5b90600052602060002001549050919050565b60006002600083815260200190815260200160002060009054906101000a900473ffffffffffffffffffffffffffffffffffffffff169050919050565b6000610a96600460008473ffffffffffffffffffffffffffffffffffffffff1673ffffffffffffffffffffffffffffffffffffffff1681526020019081526020016000206113c0565b9050919050565b60008060009054906101000a900473ffffffffffffffffffffffffffffffffffffffff16905090565b600087878787878787604051602001610ae5979695949392919061324a565b60405160208183030381529060405280519060200120905060006015600083815260200190815260200160002060000154141515610b58576040517f08c379a0000000000000000000000000000000000000000000000000000000008152600401610b4f906134d3565b60405180910390fd5b610b60612479565b604051806060016040528060405180604001604052808c81526020018b815250815260200160405180604001604052808a81526020018981525081526020016040518060400160405280888152602001878152508152509050601360009054906101000a900473ffffffffffffffffffffffffffffffffffffffff1673ffffffffffffffffffffffffffffffffffffffff166343cd76fc82856040518363ffffffff1660e01b8152600401610c16929190613533565b60206040518083038186803b158015610c2e57600080fd5b505afa158015610c42573d6000803e3d6000fd5b505050506040513d601f19601f82011682018060405250610c669190810190612ada565b1515610ca7576040517f08c379a0000000000000000000000000000000000000000000000000000000008152600401610c9e90613493565b60405180910390fd5b610cb88b8b8b8b8b8b8b8b8b6113ce565b610cc28b8b610908565b505050505050505050505050565b3373ffffffffffffffffffffffffffffffffffffffff168273ffffffffffffffffffffffffffffffffffffffff1614151515610d0b57600080fd5b80600560003373ffffffffffffffffffffffffffffffffffffffff1673ffffffffffffffffffffffffffffffffffffffff16815260200190815260200160002060008473ffffffffffffffffffffffffffffffffffffffff1673ffffffffffffffffffffffffffffffffffffffff16815260200190815260200160002060006101000a81548160ff0219169083151502179055508173ffffffffffffffffffffffffffffffffffffffff163373ffffffffffffffffffffffffffffffffffffffff167f17307eab39ab6107e8899845ad3d59bd9653f200f220920489ca2b5937696c3183604051610dfc9190613376565b60405180910390a35050565b610e13848484610824565b610e1f84848484611677565b1515610e2a57600080fd5b50505050565b6060610e3b82611154565b1515610e4657600080fd5b601260008381526020019081526020016000208054600181600116156101000203166002900480601f016020809104026020016040519081016040528092919081815260200182805460018160011615610100020316600290048015610eed5780601f10610ec257610100808354040283529160200191610eed565b820191906000526020600020905b815481529060010190602001808311610ed057829003601f168201915b50505050509050919050565b6000600560008473ffffffffffffffffffffffffffffffffffffffff1673ffffffffffffffffffffffffffffffffffffffff16815260200190815260200160002060008373ffffffffffffffffffffffffffffffffffffffff1673ffffffffffffffffffffffffffffffffffffffff16815260200190815260200160002060009054906101000a900460ff16905092915050565b6000809054906101000a900473ffffffffffffffffffffffffffffffffffffffff1673ffffffffffffffffffffffffffffffffffffffff163373ffffffffffffffffffffffffffffffffffffffff1614151561101e576040517f08c379a0000000000000000000000000000000000000000000000000000000008152600401611015906134b3565b60405180910390fd5b600073ffffffffffffffffffffffffffffffffffffffff168173ffffffffffffffffffffffffffffffffffffffff1614151515611090576040517f08c379a000000000000000000000000000000000000000000000000000000000815260040161108790613513565b60405180910390fd5b60008060009054906101000a900473ffffffffffffffffffffffffffffffffffffffff169050816000806101000a81548173ffffffffffffffffffffffffffffffffffffffff021916908373ffffffffffffffffffffffffffffffffffffffff1602179055507f8be0079c531659141344cd1fd0a4f28419497f9722a3daafe3b4186f6b6457e0816000809054906101000a900473ffffffffffffffffffffffffffffffffffffffff1660405161114892919061334d565b60405180910390a15050565b6000806002600084815260200190815260200160002060009054906101000a900473ffffffffffffffffffffffffffffffffffffffff169050600073ffffffffffffffffffffffffffffffffffffffff168173ffffffffffffffffffffffffffffffffffffffff161415915050919050565b6000806111d283610a10565b90508073ffffffffffffffffffffffffffffffffffffffff168473ffffffffffffffffffffffffffffffffffffffff16148061124157508373ffffffffffffffffffffffffffffffffffffffff16611229846104a8565b73ffffffffffffffffffffffffffffffffffffffff16145b8061125257506112518185610ef9565b5b91505092915050565b611266838383611790565b61127083826119c3565b61127a8282611b67565b505050565b6112898282611c2e565b6112938282611b67565b61129c81611de4565b5050565b6112a981611154565b15156112ea576040517f08c379a00000000000000000000000000000000000000000000000000000000081526004016112e1906134f3565b60405180910390fd5b61139660118054600181600116156101000203166002900480601f0160208091040260200160405190810160405280929190818152602001828054600181600116156101000203166002900480156113835780601f1061135857610100808354040283529160200191611383565b820191906000526020600020905b81548152906001019060200180831161136657829003601f168201915b505050505061139183611e30565b611f6a565b6012600083815260200190815260200160002090805190602001906113bc9291906124ad565b5050565b600081600001549050919050565b6000878787878787876040516020016113ed979695949392919061324a565b60405160208183030381529060405280519060200120905061140d61252d565b6040518061012001604052808b81526020018c73ffffffffffffffffffffffffffffffffffffffff1681526020018a81526020018981526020018881526020018781526020018681526020018581526020018481525090506014819080600181540180825580915050906001820390600052602060002090600c0201600090919290919091506000820151816000015560208201518160010160006101000a81548173ffffffffffffffffffffffffffffffffffffffff021916908373ffffffffffffffffffffffffffffffffffffffff160217905550604082015181600201556060820151816003015560808201518160040190600261150f9291906125a1565b5060a0820151816006019060026115279291906125a1565b5060c0820151816008015560e0820151816009015561010082015181600a019060026115549291906125a1565b5050505080601560008481526020019081526020016000206000820151816000015560208201518160010160006101000a81548173ffffffffffffffffffffffffffffffffffffffff021916908373ffffffffffffffffffffffffffffffffffffffff16021790555060408201518160020155606082015181600301556080820151816004019060026115e89291906125a1565b5060a0820151816006019060026116009291906125a1565b5060c0820151816008015560e0820151816009015561010082015181600a0190600261162d9291906125a1565b509050507f078793128cefb19aac38a33f9e5df39f67716907f6d747e8065545699e0b2b8d8a8c604051611662929190613579565b60405180910390a15050505050505050505050565b60006116988473ffffffffffffffffffffffffffffffffffffffff16611fae565b15156116a75760019050611788565b60008473ffffffffffffffffffffffffffffffffffffffff1663150b7a02338887876040518563ffffffff1660e01b81526004016116e89493929190613301565b602060405180830381600087803b15801561170257600080fd5b505af1158015611716573d6000803e3d6000fd5b505050506040513d601f19601f8201168201806040525061173a9190810190612bff565b905063150b7a0260e01b7bffffffffffffffffffffffffffffffffffffffffffffffffffffffff1916817bffffffffffffffffffffffffffffffffffffffffffffffffffffffff1916149150505b949350505050565b61179981610a10565b73ffffffffffffffffffffffffffffffffffffffff168373ffffffffffffffffffffffffffffffffffffffff16141515611808576040517f08c379a00000000000000000000000000000000000000000000000000000000081526004016117ff906133f3565b60405180910390fd5b600073ffffffffffffffffffffffffffffffffffffffff168273ffffffffffffffffffffffffffffffffffffffff161415151561187a576040517f08c379a000000000000000000000000000000000000000000000000000000000815260040161187190613413565b60405180910390fd5b61188381611ff9565b816002600083815260200190815260200160002060006101000a81548173ffffffffffffffffffffffffffffffffffffffff021916908373ffffffffffffffffffffffffffffffffffffffff16021790555061191c600460008573ffffffffffffffffffffffffffffffffffffffff1673ffffffffffffffffffffffffffffffffffffffff1681526020019081526020016000206120b9565b611963600460008473ffffffffffffffffffffffffffffffffffffffff1673ffffffffffffffffffffffffffffffffffffffff1681526020019081526020016000206120dc565b808373ffffffffffffffffffffffffffffffffffffffff168373ffffffffffffffffffffffffffffffffffffffff167fddf252ad1be2c89b69c2b068fc378daa952ba7f163c4a11628f55a4df523b3ef60405160405180910390a4505050565b6000611a1b6001600660008673ffffffffffffffffffffffffffffffffffffffff1673ffffffffffffffffffffffffffffffffffffffff168152602001908152602001600020805490506120f290919063ffffffff16565b90506000600760008481526020019081526020016000205490508181141515611b0e576000600660008673ffffffffffffffffffffffffffffffffffffffff1673ffffffffffffffffffffffffffffffffffffffff16815260200190815260200160002083815481101515611a8c57fe5b9060005260206000200154905080600660008773ffffffffffffffffffffffffffffffffffffffff1673ffffffffffffffffffffffffffffffffffffffff16815260200190815260200160002083815481101515611ae657fe5b9060005260206000200181905550816007600083815260200190815260200160002081905550505b600660008573ffffffffffffffffffffffffffffffffffffffff1673ffffffffffffffffffffffffffffffffffffffff168152602001908152602001600020805480919060019003611b6091906125e1565b5050505050565b600660008373ffffffffffffffffffffffffffffffffffffffff1673ffffffffffffffffffffffffffffffffffffffff168152602001908152602001600020805490506007600083815260200190815260200160002081905550600660008373ffffffffffffffffffffffffffffffffffffffff1673ffffffffffffffffffffffffffffffffffffffff1681526020019081526020016000208190806001815401808255809150509060018203906000526020600020016000909192909190915055505050565b611c3781611154565b151515611c79576040517f08c379a0000000000000000000000000000000000000000000000000000000008152600401611c70906133d3565b60405180910390fd5b600073ffffffffffffffffffffffffffffffffffffffff168273ffffffffffffffffffffffffffffffffffffffff1614151515611ceb576040517f08c379a0000000000000000000000000000000000000000000000000000000008152600401611ce2906133b3565b60405180910390fd5b816002600083815260200190815260200160002060006101000a81548173ffffffffffffffffffffffffffffffffffffffff021916908373ffffffffffffffffffffffffffffffffffffffff160217905550611d84600460008473ffffffffffffffffffffffffffffffffffffffff1673ffffffffffffffffffffffffffffffffffffffff1681526020019081526020016000206120dc565b808273ffffffffffffffffffffffffffffffffffffffff16600073ffffffffffffffffffffffffffffffffffffffff167fddf252ad1be2c89b69c2b068fc378daa952ba7f163c4a11628f55a4df523b3ef60405160405180910390a45050565b6008805490506009600083815260200190815260200160002081905550600881908060018154018082558091505090600182039060005260206000200160009091929091909150555050565b60606000821415611e78576040518060400160405280600181526020017f30000000000000000000000000000000000000000000000000000000000000008152509050611f65565b600082905060005b600082141515611ea6578080600101915050600a82811515611e9e57fe5b049150611e80565b6060816040519080825280601f01601f191660200182016040528015611edb5781602001600182028038833980820191505090505b50905060006001830390505b600086141515611f5d57600a86811515611efd57fe5b0660300160f81b828280600190039350815181101515611f1957fe5b9060200101907effffffffffffffffffffffffffffffffffffffffffffffffffffffffffffff1916908160001a905350600a86811515611f5557fe5b049550611ee7565b819450505050505b919050565b6060611fa6838360405180602001604052806000815250604051806020016040528060008152506040518060200160405280600081525061213c565b905092915050565b60008060007fc5d2460186f7233c927e7db2dcc703c0e500b653ca82273b7bfad8045d85a47060001b9050833f9150808214158015611ff057506000801b8214155b92505050919050565b600073ffffffffffffffffffffffffffffffffffffffff166003600083815260200190815260200160002060009054906101000a900473ffffffffffffffffffffffffffffffffffffffff1673ffffffffffffffffffffffffffffffffffffffff161415156120b65760006003600083815260200190815260200160002060006101000a81548173ffffffffffffffffffffffffffffffffffffffff021916908373ffffffffffffffffffffffffffffffffffffffff1602179055505b50565b6120d1600182600001546120f290919063ffffffff16565b816000018190555050565b6001816000016000828254019250508190555050565b600061213483836040518060400160405280601e81526020017f536166654d6174683a207375627472616374696f6e206f766572666c6f77000081525061241c565b905092915050565b6060808690506060869050606086905060608690506060869050606081518351855187518951010101016040519080825280601f01601f1916602001820160405280156121985781602001600182028038833980820191505090505b509050606081905060008090506000809050600090505b88518110156122235788818151811015156121c657fe5b90602001015160f81c60f81b83838060010194508151811015156121e657fe5b9060200101907effffffffffffffffffffffffffffffffffffffffffffffffffffffffffffff1916908160001a90535080806001019150506121af565b600090505b875181101561229c57878181518110151561223f57fe5b90602001015160f81c60f81b838380600101945081518110151561225f57fe5b9060200101907effffffffffffffffffffffffffffffffffffffffffffffffffffffffffffff1916908160001a9053508080600101915050612228565b600090505b86518110156123155786818151811015156122b857fe5b90602001015160f81c60f81b83838060010194508151811015156122d857fe5b9060200101907effffffffffffffffffffffffffffffffffffffffffffffffffffffffffffff1916908160001a90535080806001019150506122a1565b600090505b855181101561238e57858181518110151561233157fe5b90602001015160f81c60f81b838380600101945081518110151561235157fe5b9060200101907effffffffffffffffffffffffffffffffffffffffffffffffffffffffffffff1916908160001a905350808060010191505061231a565b600090505b84518110156124075784818151811015156123aa57fe5b90602001015160f81c60f81b83838060010194508151811015156123ca57fe5b9060200101907effffffffffffffffffffffffffffffffffffffffffffffffffffffffffffff1916908160001a9053508080600101915050612393565b82995050505050505050505095945050505050565b60008383111582901515612466576040517f08c379a000000000000000000000000000000000000000000000000000000000815260040161245d9190613391565b60405180910390fd5b5060008385039050809150509392505050565b60405180610100016040528061248d61260d565b815260200161249a612627565b81526020016124a761260d565b81525090565b828054600181600116156101000203166002900490600052602060002090601f016020900481019282601f106124ee57805160ff191683800117855561251c565b8280016001018555821561251c579182015b8281111561251b578251825591602001919060010190612500565b5b509050612529919061264d565b5090565b60405180610180016040528060008152602001600073ffffffffffffffffffffffffffffffffffffffff1681526020016000815260200160008152602001612573612672565b8152602001612580612672565b8152602001600081526020016000815260200161259b612672565b81525090565b82600281019282156125d0579160200282015b828111156125cf5782518255916020019190600101906125b4565b5b5090506125dd919061264d565b5090565b81548183558181111561260857818360005260206000209182019101612607919061264d565b5b505050565b604051806040016040528060008152602001600081525090565b604051806080016040528061263a612672565b8152602001612647612672565b81525090565b61266f91905b8082111561266b576000816000905550600101612653565b5090565b90565b6040518060400160405280600290602082028038833980820191505090505090565b60006126a0823561372e565b905092915050565b600082601f83011215156126bb57600080fd5b60026126ce6126c9826135cf565b6135a2565b915081838560208402820111156126e457600080fd5b60005b8381101561271457816126fa888261282e565b8452602084019350602083019250506001810190506126e7565b5050505092915050565b600061272a8235613740565b905092915050565b600061273e8251613740565b905092915050565b6000612752823561374c565b905092915050565b60006127668235613756565b905092915050565b600061277a8251613756565b905092915050565b600082601f830112151561279557600080fd5b81356127a86127a3826135f1565b6135a2565b915080825260208301602083018583830111156127c457600080fd5b6127cf8382846137e2565b50505092915050565b600082601f83011215156127eb57600080fd5b81356127fe6127f98261361d565b6135a2565b9150808252602083016020830185838301111561281a57600080fd5b6128258382846137e2565b50505092915050565b600061283a82356137a2565b905092915050565b60006020828403121561285457600080fd5b600061286284828501612694565b91505092915050565b6000806040838503121561287e57600080fd5b600061288c85828601612694565b925050602061289d85828601612694565b9150509250929050565b6000806000606084860312156128bc57600080fd5b60006128ca86828701612694565b93505060206128db86828701612694565b92505060406128ec8682870161282e565b9150509250925092565b6000806000806080858703121561290c57600080fd5b600061291a87828801612694565b945050602061292b87828801612694565b935050604061293c8782880161282e565b925050606085013567ffffffffffffffff81111561295957600080fd5b61296587828801612782565b91505092959194509250565b6000806040838503121561298457600080fd5b600061299285828601612694565b92505060206129a38582860161271e565b9150509250929050565b600080604083850312156129c057600080fd5b60006129ce85828601612694565b92505060206129df8582860161282e565b9150509250929050565b60008060008060008060008060006101808a8c031215612a0857600080fd5b6000612a168c828d01612694565b9950506020612a278c828d0161282e565b9850506040612a388c828d0161282e565b9750506060612a498c828d0161282e565b9650506080612a5a8c828d016126a8565b95505060c0612a6b8c828d016126a8565b945050610100612a7d8c828d0161282e565b935050610120612a8f8c828d0161282e565b925050610140612aa18c828d016126a8565b9150509295985092959850929598565b600060208284031215612ac357600080fd5b6000612ad18482850161271e565b91505092915050565b600060208284031215612aec57600080fd5b6000612afa84828501612732565b91505092915050565b60008060408385031215612b1657600080fd5b6000612b2485828601612746565b925050602083013567ffffffffffffffff811115612b4157600080fd5b612b4d858286016127d8565b9150509250929050565b600080600060608486031215612b6c57600080fd5b6000612b7a86828701612746565b935050602084013567ffffffffffffffff811115612b9757600080fd5b612ba3868287016127d8565b925050604084013567ffffffffffffffff811115612bc057600080fd5b612bcc86828701612782565b9150509250925092565b600060208284031215612be857600080fd5b6000612bf68482850161275a565b91505092915050565b600060208284031215612c1157600080fd5b6000612c1f8482850161276e565b91505092915050565b600060208284031215612c3a57600080fd5b6000612c488482850161282e565b91505092915050565b6000612c5d8383613206565b60208301905092915050565b6000612c758383613224565b60208301905092915050565b612c8a816137ac565b82525050565b612c99816136e6565b82525050565b612ca881613668565b612cb281846136ae565b9250612cbd82613653565b60005b82811015612ceb57612cd3858351612c51565b9450612cde82613696565b9150600181019050612cc0565b5050505050565b612cfb81613668565b612d0581846136b9565b9250612d1082613653565b60005b82811015612d3e57612d26858351612c69565b9450612d3182613696565b9150600181019050612d13565b5050505050565b612d4e8161365d565b612d5881846136a3565b9250612d6382613649565b60005b82811015612d9157612d79858351612c51565b9450612d8482613689565b9150600181019050612d66565b5050505050565b612da1816136f8565b82525050565b6000612db282613673565b612dbc81856136c4565b9350612dcc8185602086016137f1565b612dd58161382e565b840191505092915050565b6000612deb8261367e565b612df581856136d5565b9350612e058185602086016137f1565b612e0e8161382e565b840191505092915050565b6000612e26600f836136d5565b91507f496e76616c6964206164647265737300000000000000000000000000000000006000830152602082019050919050565b6000612e666014836136d5565b91507f546f6b656e20616c7265616479206578697374730000000000000000000000006000830152602082019050919050565b6000612ea66017836136d5565b91507f46726f6d206d757374206f776e2074686520746f6b656e0000000000000000006000830152602082019050919050565b6000612ee6600d836136d5565b91507f546f20697320696e76616c6964000000000000000000000000000000000000006000830152602082019050919050565b6000612f266014836136d5565b91507f546f6b656e20646f6573206e6f742065786973740000000000000000000000006000830152602082019050919050565b6000612f666016836136d5565b91507f546f2063616e6e6f7420626520746865206f776e6572000000000000000000006000830152602082019050919050565b6000612fa66023836136d5565b91507f4f6e6c79206f776e6572206f7220617070726f7665722063616e207472616e7360008301527f66657200000000000000000000000000000000000000000000000000000000006020830152604082019050919050565b600061300c6015836136d5565b91507f536f6c7574696f6e20697320696e636f727265637400000000000000000000006000830152602082019050919050565b600061304c601c836136d5565b91507f43616c6c6572206973206e6f7420636f6e7472616374206f776e6572000000006000830152602082019050919050565b600061308c601a836136d5565b91507f536f6c7574696f6e20616c7265616479207375626d69747465640000000000006000830152602082019050919050565b60006130cc6018836136d5565b91507f54686520746f6b656e20646f6573206e6f7420657869737400000000000000006000830152602082019050919050565b600061310c6021836136d5565b91507f4e6577206f776e65722063616e6e6f742062652074686520302061646472657360008301527f73000000000000000000000000000000000000000000000000000000000000006020830152604082019050919050565b60408201600082015161317b6000850182613206565b50602082015161318e6020850182613206565b50505050565b6080820160008201516131aa6000850182612d45565b5060208201516131bd6040850182612d45565b50505050565b610100820160008201516131da6000850182613165565b5060208201516131ed6040850182613194565b50604082015161320060c0850182613165565b50505050565b61320f81613724565b82525050565b61321e81613724565b82525050565b61322d81613724565b82525050565b61324461323f82613724565b613824565b82525050565b6000613256828a613233565b6020820191506132668289613233565b6020820191506132768288612cf2565b6040820191506132868287612cf2565b6040820191506132968286613233565b6020820191506132a68285613233565b6020820191506132b68284612cf2565b60408201915081905098975050505050505050565b60006020820190506132e06000830184612c90565b92915050565b60006020820190506132fb6000830184612c81565b92915050565b60006080820190506133166000830187612c81565b6133236020830186612c90565b6133306040830185613215565b81810360608301526133428184612da7565b905095945050505050565b60006040820190506133626000830185612c90565b61336f6020830184612c90565b9392505050565b600060208201905061338b6000830184612d98565b92915050565b600060208201905081810360008301526133ab8184612de0565b905092915050565b600060208201905081810360008301526133cc81612e19565b9050919050565b600060208201905081810360008301526133ec81612e59565b9050919050565b6000602082019050818103600083015261340c81612e99565b9050919050565b6000602082019050818103600083015261342c81612ed9565b9050919050565b6000602082019050818103600083015261344c81612f19565b9050919050565b6000602082019050818103600083015261346c81612f59565b9050919050565b6000602082019050818103600083015261348c81612f99565b9050919050565b600060208201905081810360008301526134ac81612fff565b9050919050565b600060208201905081810360008301526134cc8161303f565b9050919050565b600060208201905081810360008301526134ec8161307f565b9050919050565b6000602082019050818103600083015261350c816130bf565b9050919050565b6000602082019050818103600083015261352c816130ff565b9050919050565b60006101408201905061354960008301856131c3565b613557610100830184612c9f565b9392505050565b60006020820190506135736000830184613215565b92915050565b600060408201905061358e6000830185613215565b61359b6020830184612c90565b9392505050565b6000604051905081810181811067ffffffffffffffff821117156135c557600080fd5b8060405250919050565b600067ffffffffffffffff8211156135e657600080fd5b602082029050919050565b600067ffffffffffffffff82111561360857600080fd5b601f19601f8301169050602081019050919050565b600067ffffffffffffffff82111561363457600080fd5b601f19601f8301169050602081019050919050565b6000819050919050565b6000819050919050565b600060029050919050565b600060029050919050565b600081519050919050565b600081519050919050565b6000602082019050919050565b6000602082019050919050565b600081905092915050565b600081905092915050565b600081905092915050565b600082825260208201905092915050565b600082825260208201905092915050565b60006136f182613704565b9050919050565b60008115159050919050565b600073ffffffffffffffffffffffffffffffffffffffff82169050919050565b6000819050919050565b600061373982613782565b9050919050565b60008115159050919050565b6000819050919050565b60007fffffffff0000000000000000000000000000000000000000000000000000000082169050919050565b600073ffffffffffffffffffffffffffffffffffffffff82169050919050565b6000819050919050565b60006137b7826137be565b9050919050565b60006137c9826137d0565b9050919050565b60006137db82613704565b9050919050565b82818337600083830152505050565b60005b8381101561380f5780820151818401526020810190506137f4565b8381111561381e576000848401525b50505050565b6000819050919050565b6000601f19601f830116905091905056fea265627a7a723058200f0de5d73431b117ba8354769f9c2c1cc484c606352a8b4f61d9aac7eb9520e36c6578706572696d656e74616cf5003768747470733a2f2f73332d75732d776573742d322e616d617a6f6e6177732e636f6d2f756461636974792d626c6f636b636861696e2f63617073746f6e652f",
  "source": "pragma solidity >=0.4.21 <0.6.0;\npragma experimental ABIEncoderV2;\nimport \"./verifier.sol\";\nimport \"./ERC721Mintable.sol\";\n\n// TODO define a contract call to the zokrates generated solidity contract <Verifier> or <renamedVerifier>\n\n// TODO define another contract named SolnSquareVerifier that inherits from your ERC721Mintable class\ncontract SolnSquareVerifier is CustomERC721Token{\n\n    Verifier verifierProxy;\n       \n    // TODO define a solutions struct that can hold an index & an address\n    struct Solution {\n        uint256 tokenId;\n        address to;\n        uint aX; uint aY; uint[2] bX; uint[2] bY; uint cX; uint cY;\n        uint[2] input;\n    }\n\n    // TODO define an array of the above struct\n    Solution[] solutions;\n\n    // TODO define a mapping to store unique solutions submitted\n    mapping(bytes32 => Solution) private submittedSolutions;\n\n    // TODO Create an event to emit when a solution is added\n    event SolutionAdded(uint256 tokenId, address _address);\n\n    constructor(address verifierAddress) CustomERC721Token() public {\n      verifierProxy = Verifier(verifierAddress);\n    }\n\n    // TODO Create a function to add the solutions to the array and emit the event\n    function addSolution(address to, uint256 tokenId, uint aX, uint aY, uint[2] memory bX, uint[2] memory bY, uint cX, uint cY, uint[2] memory input) internal{\n        bytes32 key = keccak256(abi.encodePacked(aX,aY,bX,bY,cX,cY,input));\n\n        Solution memory solution = Solution({\n            tokenId: tokenId,\n            to: to,\n            aX: aX,\n            aY: aY,\n            bX: bX,\n            bY: bY,\n            cX: cX,\n            cY: cY,\n            input: input\n        });\n\n        solutions.push(solution);\n\n        submittedSolutions[key] = solution;\n\n        emit SolutionAdded(tokenId, to);\n    }    \n\n    // TODO Create a function to mint new NFT only after the solution has been verified\n    //  - make sure the solution is unique (has not been used before)\n    //  - make sure you handle metadata as well as tokenSuplly\n    function mintVerifiedToken(address to, uint256 tokenId, uint aX, uint aY, uint[2] memory bX, uint[2] memory bY, uint cX, uint cY, uint[2] memory input) public {\n        bytes32 key = keccak256(abi.encodePacked(aX,aY,bX,bY,cX,cY,input));\n        require(submittedSolutions[key].tokenId == 0, 'Solution already submitted' );\n        \n        Verifier.Proof memory proof = Verifier.Proof({\n            a:Pairing.G1Point({X: aX, Y: aY}),\n            b:Pairing.G2Point({X: bX, Y: bY}),\n            c:Pairing.G1Point({X: cX, Y: cY})\n        });\n\n        require(verifierProxy.verifyTx(proof, input), 'Solution is incorrect' );        \n\n        addSolution(to, tokenId, aX,aY,bX,bY,cX,cY, input);\n\n        super.mint(to, tokenId);\n    \n    }\n}\n",
  "sourcePath": "/home/alex/proiecte/p6/eth-contracts/contracts/SolnSquareVerifier.sol",
  "compiler": {
    "name": "solc",
    "version": "0.5.5+commit.47a71e8f.Emscripten.clang"
  },
  "schemaVersion": "3.4.3",
  "updatedAt": "2022-01-30T22:54:31.340Z",
  "devdoc": {
    "methods": {
      "isApprovedForAll(address,address)": {
        "details": "Tells whether an operator is approved by a given owner",
        "params": {
          "operator": "operator address which you want to query the approval of",
          "owner": "owner address which you want to query the approval of"
        },
        "return": "bool whether the given operator is approved by the given owner"
      },
      "setApprovalForAll(address,bool)": {
        "details": "Sets or unsets the approval of a given operator An operator is allowed to transfer all tokens of the sender on their behalf",
        "params": {
          "approved": "representing the status of the approval to be set",
          "to": "operator address to set the approval"
        }
      },
      "supportsInterface(bytes4)": {
        "details": "implement supportsInterface(bytes4) using a lookup table"
      },
      "tokenByIndex(uint256)": {
        "details": "Gets the token ID at a given index of all the tokens in this contract Reverts if the index is greater or equal to the total number of tokens",
        "params": {
          "index": "uint256 representing the index to be accessed of the tokens list"
        },
        "return": "uint256 token ID at the given index of the tokens list"
      },
      "tokenOfOwnerByIndex(address,uint256)": {
        "details": "Gets the token ID at a given index of the tokens list of the requested owner",
        "params": {
          "index": "uint256 representing the index to be accessed of the requested tokens list",
          "owner": "address owning the tokens list to be accessed"
        },
        "return": "uint256 token ID at the given index of the tokens list owned by the requested address"
      },
      "totalSupply()": {
        "details": "Gets the total amount of tokens stored by the contract",
        "return": "uint256 representing the total amount of tokens"
      }
    }
  },
  "userdoc": {
    "methods": {}
  }
}