{
  "contractName": "SolnSquareVerifier",
  "abi": [
    {
      "inputs": [
        {
          "internalType": "address",
          "name": "verifierAddress",
          "type": "address"
        }
      ],
      "payable": false,
      "stateMutability": "nonpayable",
      "type": "constructor"
    },
    {
      "anonymous": false,
      "inputs": [
        {
          "indexed": true,
          "internalType": "address",
          "name": "owner",
          "type": "address"
        },
        {
          "indexed": true,
          "internalType": "address",
          "name": "approved",
          "type": "address"
        },
        {
          "indexed": true,
          "internalType": "uint256",
          "name": "tokenId",
          "type": "uint256"
        }
      ],
      "name": "Approval",
      "type": "event"
    },
    {
      "anonymous": false,
      "inputs": [
        {
          "indexed": true,
          "internalType": "address",
          "name": "owner",
          "type": "address"
        },
        {
          "indexed": true,
          "internalType": "address",
          "name": "operator",
          "type": "address"
        },
        {
          "indexed": false,
          "internalType": "bool",
          "name": "approved",
          "type": "bool"
        }
      ],
      "name": "ApprovalForAll",
      "type": "event"
    },
    {
      "anonymous": false,
      "inputs": [
        {
          "indexed": false,
          "internalType": "address",
          "name": "previousOwner",
          "type": "address"
        },
        {
          "indexed": false,
          "internalType": "address",
          "name": "currentOwner",
          "type": "address"
        }
      ],
      "name": "OwnershipTransferred",
      "type": "event"
    },
    {
      "anonymous": false,
      "inputs": [
        {
          "indexed": false,
          "internalType": "address",
          "name": "triggerAddress",
          "type": "address"
        }
      ],
      "name": "Paused",
      "type": "event"
    },
    {
      "anonymous": false,
      "inputs": [
        {
          "indexed": false,
          "internalType": "uint256",
          "name": "tokenId",
          "type": "uint256"
        },
        {
          "indexed": false,
          "internalType": "address",
          "name": "_address",
          "type": "address"
        }
      ],
      "name": "SolutionAdded",
      "type": "event"
    },
    {
      "anonymous": false,
      "inputs": [
        {
          "indexed": true,
          "internalType": "address",
          "name": "from",
          "type": "address"
        },
        {
          "indexed": true,
          "internalType": "address",
          "name": "to",
          "type": "address"
        },
        {
          "indexed": true,
          "internalType": "uint256",
          "name": "tokenId",
          "type": "uint256"
        }
      ],
      "name": "Transfer",
      "type": "event"
    },
    {
      "anonymous": false,
      "inputs": [
        {
          "indexed": false,
          "internalType": "address",
          "name": "triggerAddress",
          "type": "address"
        }
      ],
      "name": "Unpaused",
      "type": "event"
    },
    {
      "constant": false,
      "inputs": [
        {
          "internalType": "bytes32",
          "name": "_myid",
          "type": "bytes32"
        },
        {
          "internalType": "string",
          "name": "_result",
          "type": "string"
        }
      ],
      "name": "__callback",
      "outputs": [],
      "payable": false,
      "stateMutability": "nonpayable",
      "type": "function"
    },
    {
      "constant": false,
      "inputs": [
        {
          "internalType": "bytes32",
          "name": "_myid",
          "type": "bytes32"
        },
        {
          "internalType": "string",
          "name": "_result",
          "type": "string"
        },
        {
          "internalType": "bytes",
          "name": "_proof",
          "type": "bytes"
        }
      ],
      "name": "__callback",
      "outputs": [],
      "payable": false,
      "stateMutability": "nonpayable",
      "type": "function"
    },
    {
      "constant": false,
      "inputs": [
        {
          "internalType": "address",
          "name": "to",
          "type": "address"
        },
        {
          "internalType": "uint256",
          "name": "tokenId",
          "type": "uint256"
        }
      ],
      "name": "approve",
      "outputs": [],
      "payable": false,
      "stateMutability": "nonpayable",
      "type": "function"
    },
    {
      "constant": true,
      "inputs": [
        {
          "internalType": "address",
          "name": "owner",
          "type": "address"
        }
      ],
      "name": "balanceOf",
      "outputs": [
        {
          "internalType": "uint256",
          "name": "",
          "type": "uint256"
        }
      ],
      "payable": false,
      "stateMutability": "view",
      "type": "function"
    },
    {
      "constant": true,
      "inputs": [
        {
          "internalType": "uint256",
          "name": "tokenId",
          "type": "uint256"
        }
      ],
      "name": "getApproved",
      "outputs": [
        {
          "internalType": "address",
          "name": "",
          "type": "address"
        }
      ],
      "payable": false,
      "stateMutability": "view",
      "type": "function"
    },
    {
      "constant": true,
      "inputs": [
        {
          "internalType": "address",
          "name": "owner",
          "type": "address"
        },
        {
          "internalType": "address",
          "name": "operator",
          "type": "address"
        }
      ],
      "name": "isApprovedForAll",
      "outputs": [
        {
          "internalType": "bool",
          "name": "",
          "type": "bool"
        }
      ],
      "payable": false,
      "stateMutability": "view",
      "type": "function"
    },
    {
      "constant": false,
      "inputs": [
        {
          "internalType": "address",
          "name": "to",
          "type": "address"
        },
        {
          "internalType": "uint256",
          "name": "tokenId",
          "type": "uint256"
        }
      ],
      "name": "mint",
      "outputs": [
        {
          "internalType": "bool",
          "name": "",
          "type": "bool"
        }
      ],
      "payable": false,
      "stateMutability": "nonpayable",
      "type": "function"
    },
    {
      "constant": true,
      "inputs": [
        {
          "internalType": "uint256",
          "name": "tokenId",
          "type": "uint256"
        }
      ],
      "name": "ownerOf",
      "outputs": [
        {
          "internalType": "address",
          "name": "",
          "type": "address"
        }
      ],
      "payable": false,
      "stateMutability": "view",
      "type": "function"
    },
    {
      "constant": false,
      "inputs": [
        {
          "internalType": "address",
          "name": "from",
          "type": "address"
        },
        {
          "internalType": "address",
          "name": "to",
          "type": "address"
        },
        {
          "internalType": "uint256",
          "name": "tokenId",
          "type": "uint256"
        }
      ],
      "name": "safeTransferFrom",
      "outputs": [],
      "payable": false,
      "stateMutability": "nonpayable",
      "type": "function"
    },
    {
      "constant": false,
      "inputs": [
        {
          "internalType": "address",
          "name": "from",
          "type": "address"
        },
        {
          "internalType": "address",
          "name": "to",
          "type": "address"
        },
        {
          "internalType": "uint256",
          "name": "tokenId",
          "type": "uint256"
        },
        {
          "internalType": "bytes",
          "name": "_data",
          "type": "bytes"
        }
      ],
      "name": "safeTransferFrom",
      "outputs": [],
      "payable": false,
      "stateMutability": "nonpayable",
      "type": "function"
    },
    {
      "constant": false,
      "inputs": [
        {
          "internalType": "address",
          "name": "to",
          "type": "address"
        },
        {
          "internalType": "bool",
          "name": "approved",
          "type": "bool"
        }
      ],
      "name": "setApprovalForAll",
      "outputs": [],
      "payable": false,
      "stateMutability": "nonpayable",
      "type": "function"
    },
    {
      "constant": false,
      "inputs": [
        {
          "internalType": "bool",
          "name": "p",
          "type": "bool"
        }
      ],
      "name": "setPaused",
      "outputs": [],
      "payable": false,
      "stateMutability": "nonpayable",
      "type": "function"
    },
    {
      "constant": true,
      "inputs": [
        {
          "internalType": "bytes4",
          "name": "interfaceId",
          "type": "bytes4"
        }
      ],
      "name": "supportsInterface",
      "outputs": [
        {
          "internalType": "bool",
          "name": "",
          "type": "bool"
        }
      ],
      "payable": false,
      "stateMutability": "view",
      "type": "function"
    },
    {
      "constant": true,
      "inputs": [
        {
          "internalType": "uint256",
          "name": "index",
          "type": "uint256"
        }
      ],
      "name": "tokenByIndex",
      "outputs": [
        {
          "internalType": "uint256",
          "name": "",
          "type": "uint256"
        }
      ],
      "payable": false,
      "stateMutability": "view",
      "type": "function"
    },
    {
      "constant": true,
      "inputs": [
        {
          "internalType": "address",
          "name": "owner",
          "type": "address"
        },
        {
          "internalType": "uint256",
          "name": "index",
          "type": "uint256"
        }
      ],
      "name": "tokenOfOwnerByIndex",
      "outputs": [
        {
          "internalType": "uint256",
          "name": "",
          "type": "uint256"
        }
      ],
      "payable": false,
      "stateMutability": "view",
      "type": "function"
    },
    {
      "constant": true,
      "inputs": [
        {
          "internalType": "uint256",
          "name": "tokenId",
          "type": "uint256"
        }
      ],
      "name": "tokenURI",
      "outputs": [
        {
          "internalType": "string",
          "name": "",
          "type": "string"
        }
      ],
      "payable": false,
      "stateMutability": "view",
      "type": "function"
    },
    {
      "constant": true,
      "inputs": [],
      "name": "totalSupply",
      "outputs": [
        {
          "internalType": "uint256",
          "name": "",
          "type": "uint256"
        }
      ],
      "payable": false,
      "stateMutability": "view",
      "type": "function"
    },
    {
      "constant": false,
      "inputs": [
        {
          "internalType": "address",
          "name": "from",
          "type": "address"
        },
        {
          "internalType": "address",
          "name": "to",
          "type": "address"
        },
        {
          "internalType": "uint256",
          "name": "tokenId",
          "type": "uint256"
        }
      ],
      "name": "transferFrom",
      "outputs": [],
      "payable": false,
      "stateMutability": "nonpayable",
      "type": "function"
    },
    {
      "constant": false,
      "inputs": [
        {
          "internalType": "address",
          "name": "newOwner",
          "type": "address"
        }
      ],
      "name": "transferOwnership",
      "outputs": [],
      "payable": false,
      "stateMutability": "nonpayable",
      "type": "function"
    },
    {
      "constant": false,
      "inputs": [
        {
          "internalType": "address",
          "name": "to",
          "type": "address"
        },
        {
          "internalType": "uint256",
          "name": "tokenId",
          "type": "uint256"
        },
        {
          "internalType": "uint256",
          "name": "aX",
          "type": "uint256"
        },
        {
          "internalType": "uint256",
          "name": "aY",
          "type": "uint256"
        },
        {
          "internalType": "uint256[2]",
          "name": "bX",
          "type": "uint256[2]"
        },
        {
          "internalType": "uint256[2]",
          "name": "bY",
          "type": "uint256[2]"
        },
        {
          "internalType": "uint256",
          "name": "cX",
          "type": "uint256"
        },
        {
          "internalType": "uint256",
          "name": "cY",
          "type": "uint256"
        },
        {
          "internalType": "uint256[2]",
          "name": "input",
          "type": "uint256[2]"
        }
      ],
      "name": "mintVerifiedToken",
      "outputs": [],
      "payable": false,
      "stateMutability": "nonpayable",
      "type": "function"
    }
  ],
  "bytecode": "0x60806040523480156200001157600080fd5b506040516200395d3803806200395d8339818101604052620000379190810190620003d0565b6040518060400160405280601b81526020017f5564616369747920426c6f636b636861696e2043617073746f6e6500000000008152506040518060400160405280600381526020017f55424300000000000000000000000000000000000000000000000000000000008152506040518060600160405280603f81526020016200391e603f9139336000806101000a81548173ffffffffffffffffffffffffffffffffffffffff021916908373ffffffffffffffffffffffffffffffffffffffff1602179055507f8be0079c531659141344cd1fd0a4f28419497f9722a3daafe3b4186f6b6457e060008060009054906101000a900473ffffffffffffffffffffffffffffffffffffffff16604051620001529291906200041e565b60405180910390a160008060146101000a81548160ff0219169083151502179055506200018c6301ffc9a760e01b6200026a60201b60201c565b620001a46380ac58cd60e01b6200026a60201b60201c565b620001bc63780e9d6360e01b6200026a60201b60201c565b82600f9080519060200190620001d49291906200030a565b508160109080519060200190620001ed9291906200030a565b508060119080519060200190620002069291906200030a565b506200021f635b5e139f60e01b6200026a60201b60201c565b50505080601360006101000a81548173ffffffffffffffffffffffffffffffffffffffff021916908373ffffffffffffffffffffffffffffffffffffffff16021790555050620004d5565b63ffffffff60e01b817bffffffffffffffffffffffffffffffffffffffffffffffffffffffff191614156200029e57600080fd5b6001806000837bffffffffffffffffffffffffffffffffffffffffffffffffffffffff19167bffffffffffffffffffffffffffffffffffffffffffffffffffffffff1916815260200190815260200160002060006101000a81548160ff02191690831515021790555050565b828054600181600116156101000203166002900490600052602060002090601f016020900481019282601f106200034d57805160ff19168380011785556200037e565b828001600101855582156200037e579182015b828111156200037d57825182559160200191906001019062000360565b5b5090506200038d919062000391565b5090565b620003b691905b80821115620003b257600081600090555060010162000398565b5090565b90565b600081519050620003ca81620004bb565b92915050565b600060208284031215620003e357600080fd5b6000620003f384828501620003b9565b91505092915050565b62000407816200047f565b82525050565b62000418816200044b565b82525050565b6000604082019050620004356000830185620003fc565b6200044460208301846200040d565b9392505050565b600062000458826200045f565b9050919050565b600073ffffffffffffffffffffffffffffffffffffffff82169050919050565b60006200048c8262000493565b9050919050565b6000620004a082620004a7565b9050919050565b6000620004b4826200045f565b9050919050565b620004c6816200044b565b8114620004d257600080fd5b50565b61343980620004e56000396000f3fe608060405234801561001057600080fd5b506004361061012c5760003560e01c806342842e0e116100ad578063a22cb46511610071578063a22cb46514610363578063b88d4fde1461037f578063c87b56dd1461039b578063e985e9c5146103cb578063f2fde38b146103fb5761012c565b806342842e0e1461029b5780634f6ccce7146102b75780636352211e146102e757806370a08231146103175780639a4dbc55146103475761012c565b806323b872dd116100f457806323b872dd146101e757806327dc297e146102035780632f745c591461021f57806338bbfa501461024f57806340c10f191461026b5761012c565b806301ffc9a714610131578063081812fc14610161578063095ea7b31461019157806316c38b3c146101ad57806318160ddd146101c9575b600080fd5b61014b60048036036101469190810190612816565b610417565b6040516101589190612f42565b60405180910390f35b61017b60048036036101769190810190612868565b61047f565b6040516101889190612e97565b60405180910390f35b6101ab60048036036101a691908101906125ed565b610504565b005b6101c760048036036101c291908101906126f1565b6106b1565b005b6101d16107e6565b6040516101de91906130ea565b60405180910390f35b61020160048036036101fc91908101906124e7565b6107f3565b005b61021d60048036036102189190810190612743565b610816565b005b610239600480360361023491908101906125ed565b610859565b60405161024691906130ea565b60405180910390f35b61026960048036036102649190810190612797565b6108cc565b005b610285600480360361028091908101906125ed565b6108d1565b6040516102929190612f42565b60405180910390f35b6102b560048036036102b091908101906124e7565b61097f565b005b6102d160048036036102cc9190810190612868565b61099f565b6040516102de91906130ea565b60405180910390f35b61030160048036036102fc9190810190612868565b6109d3565b60405161030e9190612e97565b60405180910390f35b610331600480360361032c9190810190612482565b610a10565b60405161033e91906130ea565b60405180910390f35b610361600480360361035c9190810190612629565b610a60565b005b61037d600480360361037891908101906125b1565b610c66565b005b61039960048036036103949190810190612536565b610d9c565b005b6103b560048036036103b09190810190612868565b610dc2565b6040516103c29190612f5d565b60405180910390f35b6103e560048036036103e091908101906124ab565b610e89565b6040516103f29190612f42565b60405180910390f35b61041560048036036104109190810190612482565b610f1d565b005b600060016000837bffffffffffffffffffffffffffffffffffffffffffffffffffffffff19167bffffffffffffffffffffffffffffffffffffffffffffffffffffffff1916815260200190815260200160002060009054906101000a900460ff169050919050565b600061048a826110e0565b6104c9576040517f08c379a00000000000000000000000000000000000000000000000000000000081526004016104c090612fbf565b60405180910390fd5b6003600083815260200190815260200160002060009054906101000a900473ffffffffffffffffffffffffffffffffffffffff169050919050565b600061050f826109d3565b90508273ffffffffffffffffffffffffffffffffffffffff168173ffffffffffffffffffffffffffffffffffffffff161415610580576040517f08c379a000000000000000000000000000000000000000000000000000000000815260040161057790612fdf565b60405180910390fd5b8073ffffffffffffffffffffffffffffffffffffffff163373ffffffffffffffffffffffffffffffffffffffff1614806105c057506105bf8133610e89565b5b6105ff576040517f08c379a00000000000000000000000000000000000000000000000000000000081526004016105f690612fff565b60405180910390fd5b826003600084815260200190815260200160002060006101000a81548173ffffffffffffffffffffffffffffffffffffffff021916908373ffffffffffffffffffffffffffffffffffffffff160217905550818373ffffffffffffffffffffffffffffffffffffffff168273ffffffffffffffffffffffffffffffffffffffff167f8c5be1e5ebec7d5bd14f71427d1e84f3dd0314c0f7b2291e5b200ac8c7c3b92560405160405180910390a4505050565b6000809054906101000a900473ffffffffffffffffffffffffffffffffffffffff1673ffffffffffffffffffffffffffffffffffffffff163373ffffffffffffffffffffffffffffffffffffffff1614610740576040517f08c379a00000000000000000000000000000000000000000000000000000000081526004016107379061303f565b60405180910390fd5b80600060146101000a81548160ff021916908315150217905550600060149054906101000a900460ff16156107ab577f62e78cea01bee320cd4e420270b5ea74000d11b0c9f74754ebdbfc544b05a2583360405161079e9190612eb2565b60405180910390a16107e3565b7f5db9ee0a495bf2e6ff9c91a7834c1ba4fdd244a5e8aa4e537bd38aeae4b073aa336040516107da9190612eb2565b60405180910390a15b50565b6000600880549050905090565b6107fd3382611152565b61080657600080fd5b6108118383836111e7565b505050565b610855828260006040519080825280601f01601f19166020018201604052801561084f5781602001600182028038833980820191505090505b506108cc565b5050565b600061086483610a10565b821061086f57600080fd5b600660008473ffffffffffffffffffffffffffffffffffffffff1673ffffffffffffffffffffffffffffffffffffffff16815260200190815260200160002082815481106108b957fe5b9060005260206000200154905092915050565b505050565b60008060009054906101000a900473ffffffffffffffffffffffffffffffffffffffff1673ffffffffffffffffffffffffffffffffffffffff163373ffffffffffffffffffffffffffffffffffffffff1614610962576040517f08c379a00000000000000000000000000000000000000000000000000000000081526004016109599061303f565b60405180910390fd5b61096c838361120b565b6109758261122c565b6001905092915050565b61099a83838360405180602001604052806000815250610d9c565b505050565b60006109a96107e6565b82106109b457600080fd5b600882815481106109c157fe5b90600052602060002001549050919050565b60006002600083815260200190815260200160002060009054906101000a900473ffffffffffffffffffffffffffffffffffffffff169050919050565b6000610a59600460008473ffffffffffffffffffffffffffffffffffffffff1673ffffffffffffffffffffffffffffffffffffffff16815260200190815260200160002061134a565b9050919050565b600087878787878787604051602001610a7f9796959493929190612e16565b6040516020818303038152906040528051906020012090506000601560008381526020019081526020016000206000015414610af0576040517f08c379a0000000000000000000000000000000000000000000000000000000008152600401610ae79061305f565b60405180910390fd5b610af86120b9565b604051806060016040528060405180604001604052808c81526020018b815250815260200160405180604001604052808a81526020018981525081526020016040518060400160405280888152602001878152508152509050601360009054906101000a900473ffffffffffffffffffffffffffffffffffffffff1673ffffffffffffffffffffffffffffffffffffffff166343cd76fc82856040518363ffffffff1660e01b8152600401610bae9291906130bf565b60206040518083038186803b158015610bc657600080fd5b505afa158015610bda573d6000803e3d6000fd5b505050506040513d601f19601f82011682018060405250610bfe919081019061271a565b610c3d576040517f08c379a0000000000000000000000000000000000000000000000000000000008152600401610c349061301f565b60405180910390fd5b610c4e8b8b8b8b8b8b8b8b8b611358565b610c588b8b6108d1565b505050505050505050505050565b3373ffffffffffffffffffffffffffffffffffffffff168273ffffffffffffffffffffffffffffffffffffffff161415610c9f57600080fd5b80600560003373ffffffffffffffffffffffffffffffffffffffff1673ffffffffffffffffffffffffffffffffffffffff16815260200190815260200160002060008473ffffffffffffffffffffffffffffffffffffffff1673ffffffffffffffffffffffffffffffffffffffff16815260200190815260200160002060006101000a81548160ff0219169083151502179055508173ffffffffffffffffffffffffffffffffffffffff163373ffffffffffffffffffffffffffffffffffffffff167f17307eab39ab6107e8899845ad3d59bd9653f200f220920489ca2b5937696c3183604051610d909190612f42565b60405180910390a35050565b610da78484846107f3565b610db384848484611601565b610dbc57600080fd5b50505050565b6060610dcd826110e0565b610dd657600080fd5b601260008381526020019081526020016000208054600181600116156101000203166002900480601f016020809104026020016040519081016040528092919081815260200182805460018160011615610100020316600290048015610e7d5780601f10610e5257610100808354040283529160200191610e7d565b820191906000526020600020905b815481529060010190602001808311610e6057829003601f168201915b50505050509050919050565b6000600560008473ffffffffffffffffffffffffffffffffffffffff1673ffffffffffffffffffffffffffffffffffffffff16815260200190815260200160002060008373ffffffffffffffffffffffffffffffffffffffff1673ffffffffffffffffffffffffffffffffffffffff16815260200190815260200160002060009054906101000a900460ff16905092915050565b6000809054906101000a900473ffffffffffffffffffffffffffffffffffffffff1673ffffffffffffffffffffffffffffffffffffffff163373ffffffffffffffffffffffffffffffffffffffff1614610fac576040517f08c379a0000000000000000000000000000000000000000000000000000000008152600401610fa39061303f565b60405180910390fd5b600073ffffffffffffffffffffffffffffffffffffffff168173ffffffffffffffffffffffffffffffffffffffff16141561101c576040517f08c379a00000000000000000000000000000000000000000000000000000000081526004016110139061309f565b60405180910390fd5b60008060009054906101000a900473ffffffffffffffffffffffffffffffffffffffff169050816000806101000a81548173ffffffffffffffffffffffffffffffffffffffff021916908373ffffffffffffffffffffffffffffffffffffffff1602179055507f8be0079c531659141344cd1fd0a4f28419497f9722a3daafe3b4186f6b6457e0816000809054906101000a900473ffffffffffffffffffffffffffffffffffffffff166040516110d4929190612f19565b60405180910390a15050565b6000806002600084815260200190815260200160002060009054906101000a900473ffffffffffffffffffffffffffffffffffffffff169050600073ffffffffffffffffffffffffffffffffffffffff168173ffffffffffffffffffffffffffffffffffffffff161415915050919050565b60008061115e836109d3565b90508073ffffffffffffffffffffffffffffffffffffffff168473ffffffffffffffffffffffffffffffffffffffff1614806111cd57508373ffffffffffffffffffffffffffffffffffffffff166111b58461047f565b73ffffffffffffffffffffffffffffffffffffffff16145b806111de57506111dd8185610e89565b5b91505092915050565b6111f2838383611718565b6111fc838261171d565b61120682826118bb565b505050565b6112158282611982565b61121f82826118bb565b61122881611b34565b5050565b611235816110e0565b611274576040517f08c379a000000000000000000000000000000000000000000000000000000000815260040161126b9061307f565b60405180910390fd5b61132060118054600181600116156101000203166002900480601f01602080910402602001604051908101604052809291908181526020018280546001816001161561010002031660029004801561130d5780601f106112e25761010080835404028352916020019161130d565b820191906000526020600020905b8154815290600101906020018083116112f057829003601f168201915b505050505061131b83611b80565b611cad565b6012600083815260200190815260200160002090805190602001906113469291906120ec565b5050565b600081600001549050919050565b6000878787878787876040516020016113779796959493929190612e16565b60405160208183030381529060405280519060200120905061139761216c565b6040518061012001604052808b81526020018c73ffffffffffffffffffffffffffffffffffffffff1681526020018a81526020018981526020018881526020018781526020018681526020018581526020018481525090506014819080600181540180825580915050906001820390600052602060002090600c0201600090919290919091506000820151816000015560208201518160010160006101000a81548173ffffffffffffffffffffffffffffffffffffffff021916908373ffffffffffffffffffffffffffffffffffffffff16021790555060408201518160020155606082015181600301556080820151816004019060026114999291906121e0565b5060a0820151816006019060026114b19291906121e0565b5060c0820151816008015560e0820151816009015561010082015181600a019060026114de9291906121e0565b5050505080601560008481526020019081526020016000206000820151816000015560208201518160010160006101000a81548173ffffffffffffffffffffffffffffffffffffffff021916908373ffffffffffffffffffffffffffffffffffffffff16021790555060408201518160020155606082015181600301556080820151816004019060026115729291906121e0565b5060a08201518160060190600261158a9291906121e0565b5060c0820151816008015560e0820151816009015561010082015181600a019060026115b79291906121e0565b509050507f078793128cefb19aac38a33f9e5df39f67716907f6d747e8065545699e0b2b8d8a8c6040516115ec929190613105565b60405180910390a15050505050505050505050565b60006116228473ffffffffffffffffffffffffffffffffffffffff16611cf1565b61162f5760019050611710565b60008473ffffffffffffffffffffffffffffffffffffffff1663150b7a02338887876040518563ffffffff1660e01b81526004016116709493929190612ecd565b602060405180830381600087803b15801561168a57600080fd5b505af115801561169e573d6000803e3d6000fd5b505050506040513d601f19601f820116820180604052506116c2919081019061283f565b905063150b7a0260e01b7bffffffffffffffffffffffffffffffffffffffffffffffffffffffff1916817bffffffffffffffffffffffffffffffffffffffffffffffffffffffff1916149150505b949350505050565b505050565b60006117756001600660008673ffffffffffffffffffffffffffffffffffffffff1673ffffffffffffffffffffffffffffffffffffffff16815260200190815260200160002080549050611d3c90919063ffffffff16565b9050600060076000848152602001908152602001600020549050818114611862576000600660008673ffffffffffffffffffffffffffffffffffffffff1673ffffffffffffffffffffffffffffffffffffffff16815260200190815260200160002083815481106117e257fe5b9060005260206000200154905080600660008773ffffffffffffffffffffffffffffffffffffffff1673ffffffffffffffffffffffffffffffffffffffff168152602001908152602001600020838154811061183a57fe5b9060005260206000200181905550816007600083815260200190815260200160002081905550505b600660008573ffffffffffffffffffffffffffffffffffffffff1673ffffffffffffffffffffffffffffffffffffffff1681526020019081526020016000208054809190600190036118b49190612220565b5050505050565b600660008373ffffffffffffffffffffffffffffffffffffffff1673ffffffffffffffffffffffffffffffffffffffff168152602001908152602001600020805490506007600083815260200190815260200160002081905550600660008373ffffffffffffffffffffffffffffffffffffffff1673ffffffffffffffffffffffffffffffffffffffff1681526020019081526020016000208190806001815401808255809150509060018203906000526020600020016000909192909190915055505050565b61198b816110e0565b156119cb576040517f08c379a00000000000000000000000000000000000000000000000000000000081526004016119c290612f9f565b60405180910390fd5b600073ffffffffffffffffffffffffffffffffffffffff168273ffffffffffffffffffffffffffffffffffffffff161415611a3b576040517f08c379a0000000000000000000000000000000000000000000000000000000008152600401611a3290612f7f565b60405180910390fd5b816002600083815260200190815260200160002060006101000a81548173ffffffffffffffffffffffffffffffffffffffff021916908373ffffffffffffffffffffffffffffffffffffffff160217905550611ad4600460008473ffffffffffffffffffffffffffffffffffffffff1673ffffffffffffffffffffffffffffffffffffffff168152602001908152602001600020611d86565b808273ffffffffffffffffffffffffffffffffffffffff16600073ffffffffffffffffffffffffffffffffffffffff167fddf252ad1be2c89b69c2b068fc378daa952ba7f163c4a11628f55a4df523b3ef60405160405180910390a45050565b6008805490506009600083815260200190815260200160002081905550600881908060018154018082558091505090600182039060005260206000200160009091929091909150555050565b60606000821415611bc8576040518060400160405280600181526020017f30000000000000000000000000000000000000000000000000000000000000008152509050611ca8565b600082905060005b60008214611bf2578080600101915050600a8281611bea57fe5b049150611bd0565b6060816040519080825280601f01601f191660200182016040528015611c275781602001600182028038833980820191505090505b50905060006001830390505b60008614611ca057600a8681611c4557fe5b0660300160f81b82828060019003935081518110611c5f57fe5b60200101907effffffffffffffffffffffffffffffffffffffffffffffffffffffffffffff1916908160001a905350600a8681611c9857fe5b049550611c33565b819450505050505b919050565b6060611ce98383604051806020016040528060008152506040518060200160405280600081525060405180602001604052806000815250611d9c565b905092915050565b60008060007fc5d2460186f7233c927e7db2dcc703c0e500b653ca82273b7bfad8045d85a47060001b9050833f9150808214158015611d3357506000801b8214155b92505050919050565b6000611d7e83836040518060400160405280601e81526020017f536166654d6174683a207375627472616374696f6e206f766572666c6f77000081525061205e565b905092915050565b6001816000016000828254019250508190555050565b6060808690506060869050606086905060608690506060869050606081518351855187518951010101016040519080825280601f01601f191660200182016040528015611df85781602001600182028038833980820191505090505b509050606081905060008090506000809050600090505b8851811015611e7d57888181518110611e2457fe5b602001015160f81c60f81b838380600101945081518110611e4157fe5b60200101907effffffffffffffffffffffffffffffffffffffffffffffffffffffffffffff1916908160001a9053508080600101915050611e0f565b600090505b8751811015611ef057878181518110611e9757fe5b602001015160f81c60f81b838380600101945081518110611eb457fe5b60200101907effffffffffffffffffffffffffffffffffffffffffffffffffffffffffffff1916908160001a9053508080600101915050611e82565b600090505b8651811015611f6357868181518110611f0a57fe5b602001015160f81c60f81b838380600101945081518110611f2757fe5b60200101907effffffffffffffffffffffffffffffffffffffffffffffffffffffffffffff1916908160001a9053508080600101915050611ef5565b600090505b8551811015611fd657858181518110611f7d57fe5b602001015160f81c60f81b838380600101945081518110611f9a57fe5b60200101907effffffffffffffffffffffffffffffffffffffffffffffffffffffffffffff1916908160001a9053508080600101915050611f68565b600090505b845181101561204957848181518110611ff057fe5b602001015160f81c60f81b83838060010194508151811061200d57fe5b60200101907effffffffffffffffffffffffffffffffffffffffffffffffffffffffffffff1916908160001a9053508080600101915050611fdb565b82995050505050505050505095945050505050565b60008383111582906120a6576040517f08c379a000000000000000000000000000000000000000000000000000000000815260040161209d9190612f5d565b60405180910390fd5b5060008385039050809150509392505050565b60405180606001604052806120cc61224c565b81526020016120d9612266565b81526020016120e661224c565b81525090565b828054600181600116156101000203166002900490600052602060002090601f016020900481019282601f1061212d57805160ff191683800117855561215b565b8280016001018555821561215b579182015b8281111561215a57825182559160200191906001019061213f565b5b509050612168919061228c565b5090565b60405180610120016040528060008152602001600073ffffffffffffffffffffffffffffffffffffffff16815260200160008152602001600081526020016121b26122b1565b81526020016121bf6122b1565b815260200160008152602001600081526020016121da6122b1565b81525090565b826002810192821561220f579160200282015b8281111561220e5782518255916020019190600101906121f3565b5b50905061221c919061228c565b5090565b81548183558181111561224757818360005260206000209182019101612246919061228c565b5b505050565b604051806040016040528060008152602001600081525090565b60405180604001604052806122796122b1565b81526020016122866122b1565b81525090565b6122ae91905b808211156122aa576000816000905550600101612292565b5090565b90565b6040518060400160405280600290602082028038833980820191505090505090565b6000813590506122e281613383565b92915050565b600082601f8301126122f957600080fd5b600261230c6123078261315b565b61312e565b9150818385602084028201111561232257600080fd5b60005b838110156123525781612338888261246d565b845260208401935060208301925050600181019050612325565b5050505092915050565b60008135905061236b8161339a565b92915050565b6000815190506123808161339a565b92915050565b600081359050612395816133b1565b92915050565b6000813590506123aa816133c8565b92915050565b6000815190506123bf816133c8565b92915050565b600082601f8301126123d657600080fd5b81356123e96123e48261317d565b61312e565b9150808252602083016020830185838301111561240557600080fd5b612410838284613326565b50505092915050565b600082601f83011261242a57600080fd5b813561243d612438826131a9565b61312e565b9150808252602083016020830185838301111561245957600080fd5b612464838284613326565b50505092915050565b60008135905061247c816133df565b92915050565b60006020828403121561249457600080fd5b60006124a2848285016122d3565b91505092915050565b600080604083850312156124be57600080fd5b60006124cc858286016122d3565b92505060206124dd858286016122d3565b9150509250929050565b6000806000606084860312156124fc57600080fd5b600061250a868287016122d3565b935050602061251b868287016122d3565b925050604061252c8682870161246d565b9150509250925092565b6000806000806080858703121561254c57600080fd5b600061255a878288016122d3565b945050602061256b878288016122d3565b935050604061257c8782880161246d565b925050606085013567ffffffffffffffff81111561259957600080fd5b6125a5878288016123c5565b91505092959194509250565b600080604083850312156125c457600080fd5b60006125d2858286016122d3565b92505060206125e38582860161235c565b9150509250929050565b6000806040838503121561260057600080fd5b600061260e858286016122d3565b925050602061261f8582860161246d565b9150509250929050565b60008060008060008060008060006101808a8c03121561264857600080fd5b60006126568c828d016122d3565b99505060206126678c828d0161246d565b98505060406126788c828d0161246d565b97505060606126898c828d0161246d565b965050608061269a8c828d016122e8565b95505060c06126ab8c828d016122e8565b9450506101006126bd8c828d0161246d565b9350506101206126cf8c828d0161246d565b9250506101406126e18c828d016122e8565b9150509295985092959850929598565b60006020828403121561270357600080fd5b60006127118482850161235c565b91505092915050565b60006020828403121561272c57600080fd5b600061273a84828501612371565b91505092915050565b6000806040838503121561275657600080fd5b600061276485828601612386565b925050602083013567ffffffffffffffff81111561278157600080fd5b61278d85828601612419565b9150509250929050565b6000806000606084860312156127ac57600080fd5b60006127ba86828701612386565b935050602084013567ffffffffffffffff8111156127d757600080fd5b6127e386828701612419565b925050604084013567ffffffffffffffff81111561280057600080fd5b61280c868287016123c5565b9150509250925092565b60006020828403121561282857600080fd5b60006128368482850161239b565b91505092915050565b60006020828403121561285157600080fd5b600061285f848285016123b0565b91505092915050565b60006020828403121561287a57600080fd5b60006128888482850161246d565b91505092915050565b600061289d8383612dd2565b60208301905092915050565b60006128b58383612df0565b60208301905092915050565b6128ca816132f0565b82525050565b6128d981613272565b82525050565b6128e8816131f4565b6128f2818461323a565b92506128fd826131df565b8060005b8381101561292e5781516129158782612891565b965061292083613222565b925050600181019050612901565b505050505050565b61293f816131f4565b6129498184613245565b9250612954826131df565b8060005b8381101561298557815161296c87826128a9565b965061297783613222565b925050600181019050612958565b505050505050565b612996816131e9565b6129a0818461322f565b92506129ab826131d5565b8060005b838110156129dc5781516129c38782612891565b96506129ce83613215565b9250506001810190506129af565b505050505050565b6129ed81613284565b82525050565b60006129fe826131ff565b612a088185613250565b9350612a18818560208601613335565b612a2181613372565b840191505092915050565b6000612a378261320a565b612a418185613261565b9350612a51818560208601613335565b612a5a81613372565b840191505092915050565b6000612a72600f83613261565b91507f496e76616c6964206164647265737300000000000000000000000000000000006000830152602082019050919050565b6000612ab2601483613261565b91507f546f6b656e20616c7265616479206578697374730000000000000000000000006000830152602082019050919050565b6000612af2601483613261565b91507f546f6b656e20646f6573206e6f742065786973740000000000000000000000006000830152602082019050919050565b6000612b32601683613261565b91507f546f2063616e6e6f7420626520746865206f776e6572000000000000000000006000830152602082019050919050565b6000612b72602383613261565b91507f4f6e6c79206f776e6572206f7220617070726f7665722063616e207472616e7360008301527f66657200000000000000000000000000000000000000000000000000000000006020830152604082019050919050565b6000612bd8601583613261565b91507f536f6c7574696f6e20697320696e636f727265637400000000000000000000006000830152602082019050919050565b6000612c18601c83613261565b91507f43616c6c6572206973206e6f7420636f6e7472616374206f776e6572000000006000830152602082019050919050565b6000612c58601a83613261565b91507f536f6c7574696f6e20616c7265616479207375626d69747465640000000000006000830152602082019050919050565b6000612c98601883613261565b91507f54686520746f6b656e20646f6573206e6f7420657869737400000000000000006000830152602082019050919050565b6000612cd8602183613261565b91507f4e6577206f776e65722063616e6e6f742062652074686520302061646472657360008301527f73000000000000000000000000000000000000000000000000000000000000006020830152604082019050919050565b604082016000820151612d476000850182612dd2565b506020820151612d5a6020850182612dd2565b50505050565b608082016000820151612d76600085018261298d565b506020820151612d89604085018261298d565b50505050565b61010082016000820151612da66000850182612d31565b506020820151612db96040850182612d60565b506040820151612dcc60c0850182612d31565b50505050565b612ddb816132e6565b82525050565b612dea816132e6565b82525050565b612df9816132e6565b82525050565b612e10612e0b826132e6565b613368565b82525050565b6000612e22828a612dff565b602082019150612e328289612dff565b602082019150612e428288612936565b604082019150612e528287612936565b604082019150612e628286612dff565b602082019150612e728285612dff565b602082019150612e828284612936565b60408201915081905098975050505050505050565b6000602082019050612eac60008301846128d0565b92915050565b6000602082019050612ec760008301846128c1565b92915050565b6000608082019050612ee260008301876128c1565b612eef60208301866128d0565b612efc6040830185612de1565b8181036060830152612f0e81846129f3565b905095945050505050565b6000604082019050612f2e60008301856128d0565b612f3b60208301846128d0565b9392505050565b6000602082019050612f5760008301846129e4565b92915050565b60006020820190508181036000830152612f778184612a2c565b905092915050565b60006020820190508181036000830152612f9881612a65565b9050919050565b60006020820190508181036000830152612fb881612aa5565b9050919050565b60006020820190508181036000830152612fd881612ae5565b9050919050565b60006020820190508181036000830152612ff881612b25565b9050919050565b6000602082019050818103600083015261301881612b65565b9050919050565b6000602082019050818103600083015261303881612bcb565b9050919050565b6000602082019050818103600083015261305881612c0b565b9050919050565b6000602082019050818103600083015261307881612c4b565b9050919050565b6000602082019050818103600083015261309881612c8b565b9050919050565b600060208201905081810360008301526130b881612ccb565b9050919050565b6000610140820190506130d56000830185612d8f565b6130e36101008301846128df565b9392505050565b60006020820190506130ff6000830184612de1565b92915050565b600060408201905061311a6000830185612de1565b61312760208301846128d0565b9392505050565b6000604051905081810181811067ffffffffffffffff8211171561315157600080fd5b8060405250919050565b600067ffffffffffffffff82111561317257600080fd5b602082029050919050565b600067ffffffffffffffff82111561319457600080fd5b601f19601f8301169050602081019050919050565b600067ffffffffffffffff8211156131c057600080fd5b601f19601f8301169050602081019050919050565b6000819050919050565b6000819050919050565b600060029050919050565b600060029050919050565b600081519050919050565b600081519050919050565b6000602082019050919050565b6000602082019050919050565b600081905092915050565b600081905092915050565b600081905092915050565b600082825260208201905092915050565b600082825260208201905092915050565b600061327d826132c6565b9050919050565b60008115159050919050565b6000819050919050565b60007fffffffff0000000000000000000000000000000000000000000000000000000082169050919050565b600073ffffffffffffffffffffffffffffffffffffffff82169050919050565b6000819050919050565b60006132fb82613302565b9050919050565b600061330d82613314565b9050919050565b600061331f826132c6565b9050919050565b82818337600083830152505050565b60005b83811015613353578082015181840152602081019050613338565b83811115613362576000848401525b50505050565b6000819050919050565b6000601f19601f8301169050919050565b61338c81613272565b811461339757600080fd5b50565b6133a381613284565b81146133ae57600080fd5b50565b6133ba81613290565b81146133c557600080fd5b50565b6133d18161329a565b81146133dc57600080fd5b50565b6133e8816132e6565b81146133f357600080fd5b5056fea365627a7a723158204870408315911955a0df516b560cc282d440ef8be0cd08f3d5bbddf7c69158e06c6578706572696d656e74616cf564736f6c6343000510004068747470733a2f2f73332d75732d776573742d322e616d617a6f6e6177732e636f6d2f756461636974792d626c6f636b636861696e2f63617073746f6e652f",
  "source": "pragma solidity >=0.4.21 <0.6.0;\npragma experimental ABIEncoderV2;\nimport \"./verifier.sol\";\nimport \"./ERC721Mintable.sol\";\n\n// TODO define a contract call to the zokrates generated solidity contract <Verifier> or <renamedVerifier>\n\n// TODO define another contract named SolnSquareVerifier that inherits from your ERC721Mintable class\ncontract SolnSquareVerifier is CustomERC721Token{\n\n    Verifier verifierProxy;\n       \n    // TODO define a solutions struct that can hold an index & an address\n    struct Solution {\n        uint256 tokenId;\n        address to;\n        uint aX; uint aY; uint[2] bX; uint[2] bY; uint cX; uint cY;\n        uint[2] input;\n    }\n\n    // TODO define an array of the above struct\n    Solution[] solutions;\n\n    // TODO define a mapping to store unique solutions submitted\n    mapping(bytes32 => Solution) private submittedSolutions;\n\n    // TODO Create an event to emit when a solution is added\n    event SolutionAdded(uint256 tokenId, address _address);\n\n    constructor(address verifierAddress) CustomERC721Token() public {\n      verifierProxy = Verifier(verifierAddress);\n    }\n\n    // TODO Create a function to add the solutions to the array and emit the event\n    function addSolution(address to, uint256 tokenId, uint aX, uint aY, uint[2] memory bX, uint[2] memory bY, uint cX, uint cY, uint[2] memory input) internal{\n        bytes32 key = keccak256(abi.encodePacked(aX,aY,bX,bY,cX,cY,input));\n\n        Solution memory solution = Solution({\n            tokenId: tokenId,\n            to: to,\n            aX: aX,\n            aY: aY,\n            bX: bX,\n            bY: bY,\n            cX: cX,\n            cY: cY,\n            input: input\n        });\n\n        solutions.push(solution);\n\n        submittedSolutions[key] = solution;\n\n        emit SolutionAdded(tokenId, to);\n    }    \n\n    // TODO Create a function to mint new NFT only after the solution has been verified\n    //  - make sure the solution is unique (has not been used before)\n    //  - make sure you handle metadata as well as tokenSuplly\n    function mintVerifiedToken(address to, uint256 tokenId, uint aX, uint aY, uint[2] memory bX, uint[2] memory bY, uint cX, uint cY, uint[2] memory input) public {\n        bytes32 key = keccak256(abi.encodePacked(aX,aY,bX,bY,cX,cY,input));\n        require(submittedSolutions[key].tokenId == 0, 'Solution already submitted' );\n        \n        Verifier.Proof memory proof = Verifier.Proof({\n            a:Pairing.G1Point({X: aX, Y: aY}),\n            b:Pairing.G2Point({X: bX, Y: bY}),\n            c:Pairing.G1Point({X: cX, Y: cY})\n        });\n\n        require(verifierProxy.verifyTx(proof, input), 'Solution is incorrect' );        \n\n        addSolution(to, tokenId, aX,aY,bX,bY,cX,cY, input);\n\n        super.mint(to, tokenId);\n    \n    }\n}\n",
  "sourcePath": "/home/alex/proiecte/p6/eth-contracts/contracts/SolnSquareVerifier.sol",
  "compiler": {
    "name": "solc",
    "version": "0.5.16+commit.9c3226ce.Emscripten.clang"
  },
  "schemaVersion": "3.4.3",
  "updatedAt": "2022-01-25T19:45:50.955Z",
  "networkType": "ethereum",
  "devdoc": {
    "methods": {
      "isApprovedForAll(address,address)": {
        "details": "Tells whether an operator is approved by a given owner",
        "params": {
          "operator": "operator address which you want to query the approval of",
          "owner": "owner address which you want to query the approval of"
        },
        "return": "bool whether the given operator is approved by the given owner"
      },
      "setApprovalForAll(address,bool)": {
        "details": "Sets or unsets the approval of a given operator An operator is allowed to transfer all tokens of the sender on their behalf",
        "params": {
          "approved": "representing the status of the approval to be set",
          "to": "operator address to set the approval"
        }
      },
      "supportsInterface(bytes4)": {
        "details": "implement supportsInterface(bytes4) using a lookup table"
      },
      "tokenByIndex(uint256)": {
        "details": "Gets the token ID at a given index of all the tokens in this contract Reverts if the index is greater or equal to the total number of tokens",
        "params": {
          "index": "uint256 representing the index to be accessed of the tokens list"
        },
        "return": "uint256 token ID at the given index of the tokens list"
      },
      "tokenOfOwnerByIndex(address,uint256)": {
        "details": "Gets the token ID at a given index of the tokens list of the requested owner",
        "params": {
          "index": "uint256 representing the index to be accessed of the requested tokens list",
          "owner": "address owning the tokens list to be accessed"
        },
        "return": "uint256 token ID at the given index of the tokens list owned by the requested address"
      },
      "totalSupply()": {
        "details": "Gets the total amount of tokens stored by the contract",
        "return": "uint256 representing the total amount of tokens"
      }
    }
  },
  "userdoc": {
    "methods": {}
  }
}