{
  "contractName": "SolnSquareVerifier",
  "abi": [
    {
      "anonymous": false,
      "inputs": [
        {
          "indexed": true,
          "internalType": "address",
          "name": "owner",
          "type": "address"
        },
        {
          "indexed": true,
          "internalType": "address",
          "name": "approved",
          "type": "address"
        },
        {
          "indexed": true,
          "internalType": "uint256",
          "name": "tokenId",
          "type": "uint256"
        }
      ],
      "name": "Approval",
      "type": "event"
    },
    {
      "anonymous": false,
      "inputs": [
        {
          "indexed": true,
          "internalType": "address",
          "name": "owner",
          "type": "address"
        },
        {
          "indexed": true,
          "internalType": "address",
          "name": "operator",
          "type": "address"
        },
        {
          "indexed": false,
          "internalType": "bool",
          "name": "approved",
          "type": "bool"
        }
      ],
      "name": "ApprovalForAll",
      "type": "event"
    },
    {
      "anonymous": false,
      "inputs": [
        {
          "indexed": false,
          "internalType": "address",
          "name": "previousOwner",
          "type": "address"
        },
        {
          "indexed": false,
          "internalType": "address",
          "name": "currentOwner",
          "type": "address"
        }
      ],
      "name": "OwnershipTransferred",
      "type": "event"
    },
    {
      "anonymous": false,
      "inputs": [
        {
          "indexed": false,
          "internalType": "address",
          "name": "triggerAddress",
          "type": "address"
        }
      ],
      "name": "Paused",
      "type": "event"
    },
    {
      "anonymous": false,
      "inputs": [
        {
          "indexed": false,
          "internalType": "uint256",
          "name": "index",
          "type": "uint256"
        },
        {
          "indexed": false,
          "internalType": "address",
          "name": "_address",
          "type": "address"
        }
      ],
      "name": "SolutionAdded",
      "type": "event"
    },
    {
      "anonymous": false,
      "inputs": [
        {
          "indexed": true,
          "internalType": "address",
          "name": "from",
          "type": "address"
        },
        {
          "indexed": true,
          "internalType": "address",
          "name": "to",
          "type": "address"
        },
        {
          "indexed": true,
          "internalType": "uint256",
          "name": "tokenId",
          "type": "uint256"
        }
      ],
      "name": "Transfer",
      "type": "event"
    },
    {
      "anonymous": false,
      "inputs": [
        {
          "indexed": false,
          "internalType": "address",
          "name": "triggerAddress",
          "type": "address"
        }
      ],
      "name": "Unpaused",
      "type": "event"
    },
    {
      "constant": false,
      "inputs": [
        {
          "internalType": "bytes32",
          "name": "_myid",
          "type": "bytes32"
        },
        {
          "internalType": "string",
          "name": "_result",
          "type": "string"
        }
      ],
      "name": "__callback",
      "outputs": [],
      "payable": false,
      "stateMutability": "nonpayable",
      "type": "function"
    },
    {
      "constant": false,
      "inputs": [
        {
          "internalType": "bytes32",
          "name": "_myid",
          "type": "bytes32"
        },
        {
          "internalType": "string",
          "name": "_result",
          "type": "string"
        },
        {
          "internalType": "bytes",
          "name": "_proof",
          "type": "bytes"
        }
      ],
      "name": "__callback",
      "outputs": [],
      "payable": false,
      "stateMutability": "nonpayable",
      "type": "function"
    },
    {
      "constant": false,
      "inputs": [
        {
          "internalType": "address",
          "name": "to",
          "type": "address"
        },
        {
          "internalType": "uint256",
          "name": "tokenId",
          "type": "uint256"
        }
      ],
      "name": "approve",
      "outputs": [],
      "payable": false,
      "stateMutability": "nonpayable",
      "type": "function"
    },
    {
      "constant": true,
      "inputs": [
        {
          "internalType": "address",
          "name": "owner",
          "type": "address"
        }
      ],
      "name": "balanceOf",
      "outputs": [
        {
          "internalType": "uint256",
          "name": "",
          "type": "uint256"
        }
      ],
      "payable": false,
      "stateMutability": "view",
      "type": "function"
    },
    {
      "constant": true,
      "inputs": [
        {
          "internalType": "uint256",
          "name": "tokenId",
          "type": "uint256"
        }
      ],
      "name": "getApproved",
      "outputs": [
        {
          "internalType": "address",
          "name": "",
          "type": "address"
        }
      ],
      "payable": false,
      "stateMutability": "view",
      "type": "function"
    },
    {
      "constant": true,
      "inputs": [
        {
          "internalType": "address",
          "name": "owner",
          "type": "address"
        },
        {
          "internalType": "address",
          "name": "operator",
          "type": "address"
        }
      ],
      "name": "isApprovedForAll",
      "outputs": [
        {
          "internalType": "bool",
          "name": "",
          "type": "bool"
        }
      ],
      "payable": false,
      "stateMutability": "view",
      "type": "function"
    },
    {
      "constant": false,
      "inputs": [
        {
          "internalType": "address",
          "name": "to",
          "type": "address"
        },
        {
          "internalType": "uint256",
          "name": "tokenId",
          "type": "uint256"
        }
      ],
      "name": "mint",
      "outputs": [
        {
          "internalType": "bool",
          "name": "",
          "type": "bool"
        }
      ],
      "payable": false,
      "stateMutability": "nonpayable",
      "type": "function"
    },
    {
      "constant": true,
      "inputs": [
        {
          "internalType": "uint256",
          "name": "tokenId",
          "type": "uint256"
        }
      ],
      "name": "ownerOf",
      "outputs": [
        {
          "internalType": "address",
          "name": "",
          "type": "address"
        }
      ],
      "payable": false,
      "stateMutability": "view",
      "type": "function"
    },
    {
      "constant": false,
      "inputs": [
        {
          "internalType": "address",
          "name": "from",
          "type": "address"
        },
        {
          "internalType": "address",
          "name": "to",
          "type": "address"
        },
        {
          "internalType": "uint256",
          "name": "tokenId",
          "type": "uint256"
        }
      ],
      "name": "safeTransferFrom",
      "outputs": [],
      "payable": false,
      "stateMutability": "nonpayable",
      "type": "function"
    },
    {
      "constant": false,
      "inputs": [
        {
          "internalType": "address",
          "name": "from",
          "type": "address"
        },
        {
          "internalType": "address",
          "name": "to",
          "type": "address"
        },
        {
          "internalType": "uint256",
          "name": "tokenId",
          "type": "uint256"
        },
        {
          "internalType": "bytes",
          "name": "_data",
          "type": "bytes"
        }
      ],
      "name": "safeTransferFrom",
      "outputs": [],
      "payable": false,
      "stateMutability": "nonpayable",
      "type": "function"
    },
    {
      "constant": false,
      "inputs": [
        {
          "internalType": "address",
          "name": "to",
          "type": "address"
        },
        {
          "internalType": "bool",
          "name": "approved",
          "type": "bool"
        }
      ],
      "name": "setApprovalForAll",
      "outputs": [],
      "payable": false,
      "stateMutability": "nonpayable",
      "type": "function"
    },
    {
      "constant": false,
      "inputs": [
        {
          "internalType": "bool",
          "name": "p",
          "type": "bool"
        }
      ],
      "name": "setPaused",
      "outputs": [],
      "payable": false,
      "stateMutability": "nonpayable",
      "type": "function"
    },
    {
      "constant": true,
      "inputs": [
        {
          "internalType": "bytes4",
          "name": "interfaceId",
          "type": "bytes4"
        }
      ],
      "name": "supportsInterface",
      "outputs": [
        {
          "internalType": "bool",
          "name": "",
          "type": "bool"
        }
      ],
      "payable": false,
      "stateMutability": "view",
      "type": "function"
    },
    {
      "constant": true,
      "inputs": [
        {
          "internalType": "uint256",
          "name": "index",
          "type": "uint256"
        }
      ],
      "name": "tokenByIndex",
      "outputs": [
        {
          "internalType": "uint256",
          "name": "",
          "type": "uint256"
        }
      ],
      "payable": false,
      "stateMutability": "view",
      "type": "function"
    },
    {
      "constant": true,
      "inputs": [
        {
          "internalType": "address",
          "name": "owner",
          "type": "address"
        },
        {
          "internalType": "uint256",
          "name": "index",
          "type": "uint256"
        }
      ],
      "name": "tokenOfOwnerByIndex",
      "outputs": [
        {
          "internalType": "uint256",
          "name": "",
          "type": "uint256"
        }
      ],
      "payable": false,
      "stateMutability": "view",
      "type": "function"
    },
    {
      "constant": true,
      "inputs": [
        {
          "internalType": "uint256",
          "name": "tokenId",
          "type": "uint256"
        }
      ],
      "name": "tokenURI",
      "outputs": [
        {
          "internalType": "string",
          "name": "",
          "type": "string"
        }
      ],
      "payable": false,
      "stateMutability": "view",
      "type": "function"
    },
    {
      "constant": true,
      "inputs": [],
      "name": "totalSupply",
      "outputs": [
        {
          "internalType": "uint256",
          "name": "",
          "type": "uint256"
        }
      ],
      "payable": false,
      "stateMutability": "view",
      "type": "function"
    },
    {
      "constant": false,
      "inputs": [
        {
          "internalType": "address",
          "name": "from",
          "type": "address"
        },
        {
          "internalType": "address",
          "name": "to",
          "type": "address"
        },
        {
          "internalType": "uint256",
          "name": "tokenId",
          "type": "uint256"
        }
      ],
      "name": "transferFrom",
      "outputs": [],
      "payable": false,
      "stateMutability": "nonpayable",
      "type": "function"
    },
    {
      "constant": false,
      "inputs": [
        {
          "internalType": "address",
          "name": "newOwner",
          "type": "address"
        }
      ],
      "name": "transferOwnership",
      "outputs": [],
      "payable": false,
      "stateMutability": "nonpayable",
      "type": "function"
    },
    {
      "constant": false,
      "inputs": [],
      "name": "mintNewToken",
      "outputs": [],
      "payable": false,
      "stateMutability": "nonpayable",
      "type": "function"
    }
  ],
  "bytecode": "0x60806040526040518060400160405280601b81526020017f5564616369747920426c6f636b636861696e2043617073746f6e6500000000008152506040518060400160405280600381526020017f55424300000000000000000000000000000000000000000000000000000000008152506040518060600160405280603f815260200162002c99603f9139336000806101000a81548173ffffffffffffffffffffffffffffffffffffffff021916908373ffffffffffffffffffffffffffffffffffffffff1602179055507f8be0079c531659141344cd1fd0a4f28419497f9722a3daafe3b4186f6b6457e060008060009054906101000a900473ffffffffffffffffffffffffffffffffffffffff166040516200011f92919062000366565b60405180910390a160008060146101000a81548160ff021916908315150217905550620001596301ffc9a760e01b620001f560201b60201c565b620001716380ac58cd60e01b620001f560201b60201c565b6200018963780e9d6360e01b620001f560201b60201c565b82600f9080519060200190620001a192919062000295565b508160109080519060200190620001ba92919062000295565b508060119080519060200190620001d392919062000295565b50620001ec635b5e139f60e01b620001f560201b60201c565b50505062000403565b63ffffffff60e01b817bffffffffffffffffffffffffffffffffffffffffffffffffffffffff191614156200022957600080fd5b6001806000837bffffffffffffffffffffffffffffffffffffffffffffffffffffffff19167bffffffffffffffffffffffffffffffffffffffffffffffffffffffff1916815260200190815260200160002060006101000a81548160ff02191690831515021790555050565b828054600181600116156101000203166002900490600052602060002090601f016020900481019282601f10620002d857805160ff191683800117855562000309565b8280016001018555821562000309579182015b8281111562000308578251825591602001919060010190620002eb565b5b5090506200031891906200031c565b5090565b6200034191905b808211156200033d57600081600090555060010162000323565b5090565b90565b6200034f81620003c7565b82525050565b620003608162000393565b82525050565b60006040820190506200037d600083018562000344565b6200038c602083018462000355565b9392505050565b6000620003a082620003a7565b9050919050565b600073ffffffffffffffffffffffffffffffffffffffff82169050919050565b6000620003d482620003db565b9050919050565b6000620003e882620003ef565b9050919050565b6000620003fc82620003a7565b9050919050565b61288680620004136000396000f3fe608060405234801561001057600080fd5b506004361061012c5760003560e01c806342842e0e116100ad578063a22cb46511610071578063a22cb46514610351578063b88d4fde1461036d578063c87b56dd14610389578063e985e9c5146103b9578063f2fde38b146103e95761012c565b806342842e0e1461029b5780634f6ccce7146102b75780636352211e146102e757806370a082311461031757806374f10479146103475761012c565b806323b872dd116100f457806323b872dd146101e757806327dc297e146102035780632f745c591461021f57806338bbfa501461024f57806340c10f191461026b5761012c565b806301ffc9a714610131578063081812fc14610161578063095ea7b31461019157806316c38b3c146101ad57806318160ddd146101c9575b600080fd5b61014b60048036036101469190810190612094565b610405565b60405161015891906124b4565b60405180910390f35b61017b600480360361017691908101906120e6565b61046d565b6040516101889190612409565b60405180910390f35b6101ab60048036036101a69190810190611f5c565b6104f2565b005b6101c760048036036101c29190810190611f98565b61069f565b005b6101d16107d4565b6040516101de91906125f1565b60405180910390f35b61020160048036036101fc9190810190611e56565b6107e1565b005b61021d60048036036102189190810190611fc1565b610804565b005b61023960048036036102349190810190611f5c565b610847565b60405161024691906125f1565b60405180910390f35b61026960048036036102649190810190612015565b6108ba565b005b61028560048036036102809190810190611f5c565b6108bf565b60405161029291906124b4565b60405180910390f35b6102b560048036036102b09190810190611e56565b61096d565b005b6102d160048036036102cc91908101906120e6565b61098d565b6040516102de91906125f1565b60405180910390f35b61030160048036036102fc91908101906120e6565b6109c1565b60405161030e9190612409565b60405180910390f35b610331600480360361032c9190810190611df1565b6109fe565b60405161033e91906125f1565b60405180910390f35b61034f610a4e565b005b61036b60048036036103669190810190611f20565b610a50565b005b61038760048036036103829190810190611ea5565b610b86565b005b6103a3600480360361039e91908101906120e6565b610bac565b6040516103b091906124cf565b60405180910390f35b6103d360048036036103ce9190810190611e1a565b610c73565b6040516103e091906124b4565b60405180910390f35b61040360048036036103fe9190810190611df1565b610d07565b005b600060016000837bffffffffffffffffffffffffffffffffffffffffffffffffffffffff19167bffffffffffffffffffffffffffffffffffffffffffffffffffffffff1916815260200190815260200160002060009054906101000a900460ff169050919050565b600061047882610eca565b6104b7576040517f08c379a00000000000000000000000000000000000000000000000000000000081526004016104ae90612531565b60405180910390fd5b6003600083815260200190815260200160002060009054906101000a900473ffffffffffffffffffffffffffffffffffffffff169050919050565b60006104fd826109c1565b90508273ffffffffffffffffffffffffffffffffffffffff168173ffffffffffffffffffffffffffffffffffffffff16141561056e576040517f08c379a000000000000000000000000000000000000000000000000000000000815260040161056590612551565b60405180910390fd5b8073ffffffffffffffffffffffffffffffffffffffff163373ffffffffffffffffffffffffffffffffffffffff1614806105ae57506105ad8133610c73565b5b6105ed576040517f08c379a00000000000000000000000000000000000000000000000000000000081526004016105e490612571565b60405180910390fd5b826003600084815260200190815260200160002060006101000a81548173ffffffffffffffffffffffffffffffffffffffff021916908373ffffffffffffffffffffffffffffffffffffffff160217905550818373ffffffffffffffffffffffffffffffffffffffff168273ffffffffffffffffffffffffffffffffffffffff167f8c5be1e5ebec7d5bd14f71427d1e84f3dd0314c0f7b2291e5b200ac8c7c3b92560405160405180910390a4505050565b6000809054906101000a900473ffffffffffffffffffffffffffffffffffffffff1673ffffffffffffffffffffffffffffffffffffffff163373ffffffffffffffffffffffffffffffffffffffff161461072e576040517f08c379a000000000000000000000000000000000000000000000000000000000815260040161072590612591565b60405180910390fd5b80600060146101000a81548160ff021916908315150217905550600060149054906101000a900460ff1615610799577f62e78cea01bee320cd4e420270b5ea74000d11b0c9f74754ebdbfc544b05a2583360405161078c9190612424565b60405180910390a16107d1565b7f5db9ee0a495bf2e6ff9c91a7834c1ba4fdd244a5e8aa4e537bd38aeae4b073aa336040516107c89190612424565b60405180910390a15b50565b6000600880549050905090565b6107eb3382610f3c565b6107f457600080fd5b6107ff838383610fd1565b505050565b610843828260006040519080825280601f01601f19166020018201604052801561083d5781602001600182028038833980820191505090505b506108ba565b5050565b6000610852836109fe565b821061085d57600080fd5b600660008473ffffffffffffffffffffffffffffffffffffffff1673ffffffffffffffffffffffffffffffffffffffff16815260200190815260200160002082815481106108a757fe5b9060005260206000200154905092915050565b505050565b60008060009054906101000a900473ffffffffffffffffffffffffffffffffffffffff1673ffffffffffffffffffffffffffffffffffffffff163373ffffffffffffffffffffffffffffffffffffffff1614610950576040517f08c379a000000000000000000000000000000000000000000000000000000000815260040161094790612591565b60405180910390fd5b61095a8383610ff5565b61096382611016565b6001905092915050565b61098883838360405180602001604052806000815250610b86565b505050565b60006109976107d4565b82106109a257600080fd5b600882815481106109af57fe5b90600052602060002001549050919050565b60006002600083815260200190815260200160002060009054906101000a900473ffffffffffffffffffffffffffffffffffffffff169050919050565b6000610a47600460008473ffffffffffffffffffffffffffffffffffffffff1673ffffffffffffffffffffffffffffffffffffffff168152602001908152602001600020611134565b9050919050565b565b3373ffffffffffffffffffffffffffffffffffffffff168273ffffffffffffffffffffffffffffffffffffffff161415610a8957600080fd5b80600560003373ffffffffffffffffffffffffffffffffffffffff1673ffffffffffffffffffffffffffffffffffffffff16815260200190815260200160002060008473ffffffffffffffffffffffffffffffffffffffff1673ffffffffffffffffffffffffffffffffffffffff16815260200190815260200160002060006101000a81548160ff0219169083151502179055508173ffffffffffffffffffffffffffffffffffffffff163373ffffffffffffffffffffffffffffffffffffffff167f17307eab39ab6107e8899845ad3d59bd9653f200f220920489ca2b5937696c3183604051610b7a91906124b4565b60405180910390a35050565b610b918484846107e1565b610b9d84848484611142565b610ba657600080fd5b50505050565b6060610bb782610eca565b610bc057600080fd5b601260008381526020019081526020016000208054600181600116156101000203166002900480601f016020809104026020016040519081016040528092919081815260200182805460018160011615610100020316600290048015610c675780601f10610c3c57610100808354040283529160200191610c67565b820191906000526020600020905b815481529060010190602001808311610c4a57829003601f168201915b50505050509050919050565b6000600560008473ffffffffffffffffffffffffffffffffffffffff1673ffffffffffffffffffffffffffffffffffffffff16815260200190815260200160002060008373ffffffffffffffffffffffffffffffffffffffff1673ffffffffffffffffffffffffffffffffffffffff16815260200190815260200160002060009054906101000a900460ff16905092915050565b6000809054906101000a900473ffffffffffffffffffffffffffffffffffffffff1673ffffffffffffffffffffffffffffffffffffffff163373ffffffffffffffffffffffffffffffffffffffff1614610d96576040517f08c379a0000000000000000000000000000000000000000000000000000000008152600401610d8d90612591565b60405180910390fd5b600073ffffffffffffffffffffffffffffffffffffffff168173ffffffffffffffffffffffffffffffffffffffff161415610e06576040517f08c379a0000000000000000000000000000000000000000000000000000000008152600401610dfd906125d1565b60405180910390fd5b60008060009054906101000a900473ffffffffffffffffffffffffffffffffffffffff169050816000806101000a81548173ffffffffffffffffffffffffffffffffffffffff021916908373ffffffffffffffffffffffffffffffffffffffff1602179055507f8be0079c531659141344cd1fd0a4f28419497f9722a3daafe3b4186f6b6457e0816000809054906101000a900473ffffffffffffffffffffffffffffffffffffffff16604051610ebe92919061248b565b60405180910390a15050565b6000806002600084815260200190815260200160002060009054906101000a900473ffffffffffffffffffffffffffffffffffffffff169050600073ffffffffffffffffffffffffffffffffffffffff168173ffffffffffffffffffffffffffffffffffffffff161415915050919050565b600080610f48836109c1565b90508073ffffffffffffffffffffffffffffffffffffffff168473ffffffffffffffffffffffffffffffffffffffff161480610fb757508373ffffffffffffffffffffffffffffffffffffffff16610f9f8461046d565b73ffffffffffffffffffffffffffffffffffffffff16145b80610fc85750610fc78185610c73565b5b91505092915050565b610fdc838383611259565b610fe6838261125e565b610ff082826113fc565b505050565b610fff82826114c3565b61100982826113fc565b61101281611675565b5050565b61101f81610eca565b61105e576040517f08c379a0000000000000000000000000000000000000000000000000000000008152600401611055906125b1565b60405180910390fd5b61110a60118054600181600116156101000203166002900480601f0160208091040260200160405190810160405280929190818152602001828054600181600116156101000203166002900480156110f75780601f106110cc576101008083540402835291602001916110f7565b820191906000526020600020905b8154815290600101906020018083116110da57829003601f168201915b5050505050611105836116c1565b6117ee565b601260008381526020019081526020016000209080519060200190611130929190611bfa565b5050565b600081600001549050919050565b60006111638473ffffffffffffffffffffffffffffffffffffffff16611832565b6111705760019050611251565b60008473ffffffffffffffffffffffffffffffffffffffff1663150b7a02338887876040518563ffffffff1660e01b81526004016111b1949392919061243f565b602060405180830381600087803b1580156111cb57600080fd5b505af11580156111df573d6000803e3d6000fd5b505050506040513d601f19601f8201168201806040525061120391908101906120bd565b905063150b7a0260e01b7bffffffffffffffffffffffffffffffffffffffffffffffffffffffff1916817bffffffffffffffffffffffffffffffffffffffffffffffffffffffff1916149150505b949350505050565b505050565b60006112b66001600660008673ffffffffffffffffffffffffffffffffffffffff1673ffffffffffffffffffffffffffffffffffffffff1681526020019081526020016000208054905061187d90919063ffffffff16565b90506000600760008481526020019081526020016000205490508181146113a3576000600660008673ffffffffffffffffffffffffffffffffffffffff1673ffffffffffffffffffffffffffffffffffffffff168152602001908152602001600020838154811061132357fe5b9060005260206000200154905080600660008773ffffffffffffffffffffffffffffffffffffffff1673ffffffffffffffffffffffffffffffffffffffff168152602001908152602001600020838154811061137b57fe5b9060005260206000200181905550816007600083815260200190815260200160002081905550505b600660008573ffffffffffffffffffffffffffffffffffffffff1673ffffffffffffffffffffffffffffffffffffffff1681526020019081526020016000208054809190600190036113f59190611c7a565b5050505050565b600660008373ffffffffffffffffffffffffffffffffffffffff1673ffffffffffffffffffffffffffffffffffffffff168152602001908152602001600020805490506007600083815260200190815260200160002081905550600660008373ffffffffffffffffffffffffffffffffffffffff1673ffffffffffffffffffffffffffffffffffffffff1681526020019081526020016000208190806001815401808255809150509060018203906000526020600020016000909192909190915055505050565b6114cc81610eca565b1561150c576040517f08c379a000000000000000000000000000000000000000000000000000000000815260040161150390612511565b60405180910390fd5b600073ffffffffffffffffffffffffffffffffffffffff168273ffffffffffffffffffffffffffffffffffffffff16141561157c576040517f08c379a0000000000000000000000000000000000000000000000000000000008152600401611573906124f1565b60405180910390fd5b816002600083815260200190815260200160002060006101000a81548173ffffffffffffffffffffffffffffffffffffffff021916908373ffffffffffffffffffffffffffffffffffffffff160217905550611615600460008473ffffffffffffffffffffffffffffffffffffffff1673ffffffffffffffffffffffffffffffffffffffff1681526020019081526020016000206118c7565b808273ffffffffffffffffffffffffffffffffffffffff16600073ffffffffffffffffffffffffffffffffffffffff167fddf252ad1be2c89b69c2b068fc378daa952ba7f163c4a11628f55a4df523b3ef60405160405180910390a45050565b6008805490506009600083815260200190815260200160002081905550600881908060018154018082558091505090600182039060005260206000200160009091929091909150555050565b60606000821415611709576040518060400160405280600181526020017f300000000000000000000000000000000000000000000000000000000000000081525090506117e9565b600082905060005b60008214611733578080600101915050600a828161172b57fe5b049150611711565b6060816040519080825280601f01601f1916602001820160405280156117685781602001600182028038833980820191505090505b50905060006001830390505b600086146117e157600a868161178657fe5b0660300160f81b828280600190039350815181106117a057fe5b60200101907effffffffffffffffffffffffffffffffffffffffffffffffffffffffffffff1916908160001a905350600a86816117d957fe5b049550611774565b819450505050505b919050565b606061182a83836040518060200160405280600081525060405180602001604052806000815250604051806020016040528060008152506118dd565b905092915050565b60008060007fc5d2460186f7233c927e7db2dcc703c0e500b653ca82273b7bfad8045d85a47060001b9050833f915080821415801561187457506000801b8214155b92505050919050565b60006118bf83836040518060400160405280601e81526020017f536166654d6174683a207375627472616374696f6e206f766572666c6f770000815250611b9f565b905092915050565b6001816000016000828254019250508190555050565b6060808690506060869050606086905060608690506060869050606081518351855187518951010101016040519080825280601f01601f1916602001820160405280156119395781602001600182028038833980820191505090505b509050606081905060008090506000809050600090505b88518110156119be5788818151811061196557fe5b602001015160f81c60f81b83838060010194508151811061198257fe5b60200101907effffffffffffffffffffffffffffffffffffffffffffffffffffffffffffff1916908160001a9053508080600101915050611950565b600090505b8751811015611a31578781815181106119d857fe5b602001015160f81c60f81b8383806001019450815181106119f557fe5b60200101907effffffffffffffffffffffffffffffffffffffffffffffffffffffffffffff1916908160001a90535080806001019150506119c3565b600090505b8651811015611aa457868181518110611a4b57fe5b602001015160f81c60f81b838380600101945081518110611a6857fe5b60200101907effffffffffffffffffffffffffffffffffffffffffffffffffffffffffffff1916908160001a9053508080600101915050611a36565b600090505b8551811015611b1757858181518110611abe57fe5b602001015160f81c60f81b838380600101945081518110611adb57fe5b60200101907effffffffffffffffffffffffffffffffffffffffffffffffffffffffffffff1916908160001a9053508080600101915050611aa9565b600090505b8451811015611b8a57848181518110611b3157fe5b602001015160f81c60f81b838380600101945081518110611b4e57fe5b60200101907effffffffffffffffffffffffffffffffffffffffffffffffffffffffffffff1916908160001a9053508080600101915050611b1c565b82995050505050505050505095945050505050565b6000838311158290611be7576040517f08c379a0000000000000000000000000000000000000000000000000000000008152600401611bde91906124cf565b60405180910390fd5b5060008385039050809150509392505050565b828054600181600116156101000203166002900490600052602060002090601f016020900481019282601f10611c3b57805160ff1916838001178555611c69565b82800160010185558215611c69579182015b82811115611c68578251825591602001919060010190611c4d565b5b509050611c769190611ca6565b5090565b815481835581811115611ca157818360005260206000209182019101611ca09190611ca6565b5b505050565b611cc891905b80821115611cc4576000816000905550600101611cac565b5090565b90565b600081359050611cda816127d0565b92915050565b600081359050611cef816127e7565b92915050565b600081359050611d04816127fe565b92915050565b600081359050611d1981612815565b92915050565b600081519050611d2e81612815565b92915050565b600082601f830112611d4557600080fd5b8135611d58611d5382612639565b61260c565b91508082526020830160208301858383011115611d7457600080fd5b611d7f83828461277d565b50505092915050565b600082601f830112611d9957600080fd5b8135611dac611da782612665565b61260c565b91508082526020830160208301858383011115611dc857600080fd5b611dd383828461277d565b50505092915050565b600081359050611deb8161282c565b92915050565b600060208284031215611e0357600080fd5b6000611e1184828501611ccb565b91505092915050565b60008060408385031215611e2d57600080fd5b6000611e3b85828601611ccb565b9250506020611e4c85828601611ccb565b9150509250929050565b600080600060608486031215611e6b57600080fd5b6000611e7986828701611ccb565b9350506020611e8a86828701611ccb565b9250506040611e9b86828701611ddc565b9150509250925092565b60008060008060808587031215611ebb57600080fd5b6000611ec987828801611ccb565b9450506020611eda87828801611ccb565b9350506040611eeb87828801611ddc565b925050606085013567ffffffffffffffff811115611f0857600080fd5b611f1487828801611d34565b91505092959194509250565b60008060408385031215611f3357600080fd5b6000611f4185828601611ccb565b9250506020611f5285828601611ce0565b9150509250929050565b60008060408385031215611f6f57600080fd5b6000611f7d85828601611ccb565b9250506020611f8e85828601611ddc565b9150509250929050565b600060208284031215611faa57600080fd5b6000611fb884828501611ce0565b91505092915050565b60008060408385031215611fd457600080fd5b6000611fe285828601611cf5565b925050602083013567ffffffffffffffff811115611fff57600080fd5b61200b85828601611d88565b9150509250929050565b60008060006060848603121561202a57600080fd5b600061203886828701611cf5565b935050602084013567ffffffffffffffff81111561205557600080fd5b61206186828701611d88565b925050604084013567ffffffffffffffff81111561207e57600080fd5b61208a86828701611d34565b9150509250925092565b6000602082840312156120a657600080fd5b60006120b484828501611d0a565b91505092915050565b6000602082840312156120cf57600080fd5b60006120dd84828501611d1f565b91505092915050565b6000602082840312156120f857600080fd5b600061210684828501611ddc565b91505092915050565b61211881612747565b82525050565b612127816126c9565b82525050565b612136816126db565b82525050565b600061214782612691565b61215181856126a7565b935061216181856020860161278c565b61216a816127bf565b840191505092915050565b60006121808261269c565b61218a81856126b8565b935061219a81856020860161278c565b6121a3816127bf565b840191505092915050565b60006121bb600f836126b8565b91507f496e76616c6964206164647265737300000000000000000000000000000000006000830152602082019050919050565b60006121fb6014836126b8565b91507f546f6b656e20616c7265616479206578697374730000000000000000000000006000830152602082019050919050565b600061223b6014836126b8565b91507f546f6b656e20646f6573206e6f742065786973740000000000000000000000006000830152602082019050919050565b600061227b6016836126b8565b91507f546f2063616e6e6f7420626520746865206f776e6572000000000000000000006000830152602082019050919050565b60006122bb6023836126b8565b91507f4f6e6c79206f776e6572206f7220617070726f7665722063616e207472616e7360008301527f66657200000000000000000000000000000000000000000000000000000000006020830152604082019050919050565b6000612321601c836126b8565b91507f43616c6c6572206973206e6f7420636f6e7472616374206f776e6572000000006000830152602082019050919050565b60006123616018836126b8565b91507f54686520746f6b656e20646f6573206e6f7420657869737400000000000000006000830152602082019050919050565b60006123a16021836126b8565b91507f4e6577206f776e65722063616e6e6f742062652074686520302061646472657360008301527f73000000000000000000000000000000000000000000000000000000000000006020830152604082019050919050565b6124038161273d565b82525050565b600060208201905061241e600083018461211e565b92915050565b6000602082019050612439600083018461210f565b92915050565b6000608082019050612454600083018761210f565b612461602083018661211e565b61246e60408301856123fa565b8181036060830152612480818461213c565b905095945050505050565b60006040820190506124a0600083018561211e565b6124ad602083018461211e565b9392505050565b60006020820190506124c9600083018461212d565b92915050565b600060208201905081810360008301526124e98184612175565b905092915050565b6000602082019050818103600083015261250a816121ae565b9050919050565b6000602082019050818103600083015261252a816121ee565b9050919050565b6000602082019050818103600083015261254a8161222e565b9050919050565b6000602082019050818103600083015261256a8161226e565b9050919050565b6000602082019050818103600083015261258a816122ae565b9050919050565b600060208201905081810360008301526125aa81612314565b9050919050565b600060208201905081810360008301526125ca81612354565b9050919050565b600060208201905081810360008301526125ea81612394565b9050919050565b600060208201905061260660008301846123fa565b92915050565b6000604051905081810181811067ffffffffffffffff8211171561262f57600080fd5b8060405250919050565b600067ffffffffffffffff82111561265057600080fd5b601f19601f8301169050602081019050919050565b600067ffffffffffffffff82111561267c57600080fd5b601f19601f8301169050602081019050919050565b600081519050919050565b600081519050919050565b600082825260208201905092915050565b600082825260208201905092915050565b60006126d48261271d565b9050919050565b60008115159050919050565b6000819050919050565b60007fffffffff0000000000000000000000000000000000000000000000000000000082169050919050565b600073ffffffffffffffffffffffffffffffffffffffff82169050919050565b6000819050919050565b600061275282612759565b9050919050565b60006127648261276b565b9050919050565b60006127768261271d565b9050919050565b82818337600083830152505050565b60005b838110156127aa57808201518184015260208101905061278f565b838111156127b9576000848401525b50505050565b6000601f19601f8301169050919050565b6127d9816126c9565b81146127e457600080fd5b50565b6127f0816126db565b81146127fb57600080fd5b50565b612807816126e7565b811461281257600080fd5b50565b61281e816126f1565b811461282957600080fd5b50565b6128358161273d565b811461284057600080fd5b5056fea365627a7a72315820d3264e8e7c64b7c4e6cbec5dc35b7942b8da0108d6302186cc436d43b49d69866c6578706572696d656e74616cf564736f6c6343000510004068747470733a2f2f73332d75732d776573742d322e616d617a6f6e6177732e636f6d2f756461636974792d626c6f636b636861696e2f63617073746f6e652f",
  "source": "pragma solidity >=0.4.21 <0.6.0;\npragma experimental ABIEncoderV2;\nimport \"./verifier.sol\";\nimport \"./ERC721Mintable.sol\";\n\n// TODO define a contract call to the zokrates generated solidity contract <Verifier> or <renamedVerifier>\n\ncontract SquareVerifier is Verifier {\n    \n}\n\n\n// TODO define another contract named SolnSquareVerifier that inherits from your ERC721Mintable class\ncontract SolnSquareVerifier is CustomERC721Token{\n\n    // TODO define a solutions struct that can hold an index & an address\n    struct Solution {\n        uint256 index;\n        address _address;\n    }\n\n    // TODO define an array of the above struct\n    Solution[] solutions;\n\n    // TODO define a mapping to store unique solutions submitted\n\n    // TODO Create an event to emit when a solution is added\n    event SolutionAdded(uint256 index, address _address);\n\n    // TODO Create a function to add the solutions to the array and emit the event\n    function addSolution(uint256 index, address _address) internal{\n\n    }\n\n    // TODO Create a function to mint new NFT only after the solution has been verified\n    //  - make sure the solution is unique (has not been used before)\n    //  - make sure you handle metadata as well as tokenSuplly\n    function mintNewToken() public {\n    \n    }\n}\n",
  "sourcePath": "/home/alex/proiecte/p6/eth-contracts/contracts/SolnSquareVerifier.sol",
  "compiler": {
    "name": "solc",
    "version": "0.5.16+commit.9c3226ce.Emscripten.clang"
  },
  "schemaVersion": "3.4.3",
  "updatedAt": "2022-01-13T21:20:02.777Z",
  "networkType": "ethereum",
  "devdoc": {
    "methods": {
      "isApprovedForAll(address,address)": {
        "details": "Tells whether an operator is approved by a given owner",
        "params": {
          "operator": "operator address which you want to query the approval of",
          "owner": "owner address which you want to query the approval of"
        },
        "return": "bool whether the given operator is approved by the given owner"
      },
      "setApprovalForAll(address,bool)": {
        "details": "Sets or unsets the approval of a given operator An operator is allowed to transfer all tokens of the sender on their behalf",
        "params": {
          "approved": "representing the status of the approval to be set",
          "to": "operator address to set the approval"
        }
      },
      "supportsInterface(bytes4)": {
        "details": "implement supportsInterface(bytes4) using a lookup table"
      },
      "tokenByIndex(uint256)": {
        "details": "Gets the token ID at a given index of all the tokens in this contract Reverts if the index is greater or equal to the total number of tokens",
        "params": {
          "index": "uint256 representing the index to be accessed of the tokens list"
        },
        "return": "uint256 token ID at the given index of the tokens list"
      },
      "tokenOfOwnerByIndex(address,uint256)": {
        "details": "Gets the token ID at a given index of the tokens list of the requested owner",
        "params": {
          "index": "uint256 representing the index to be accessed of the requested tokens list",
          "owner": "address owning the tokens list to be accessed"
        },
        "return": "uint256 token ID at the given index of the tokens list owned by the requested address"
      },
      "totalSupply()": {
        "details": "Gets the total amount of tokens stored by the contract",
        "return": "uint256 representing the total amount of tokens"
      }
    }
  },
  "userdoc": {
    "methods": {}
  }
}