{
  "contractName": "SquareVerifier",
  "abi": [
    {
      "constant": true,
      "inputs": [
        {
          "components": [
            {
              "components": [
                {
                  "internalType": "uint256",
                  "name": "X",
                  "type": "uint256"
                },
                {
                  "internalType": "uint256",
                  "name": "Y",
                  "type": "uint256"
                }
              ],
              "internalType": "struct Pairing.G1Point",
              "name": "a",
              "type": "tuple"
            },
            {
              "components": [
                {
                  "internalType": "uint256[2]",
                  "name": "X",
                  "type": "uint256[2]"
                },
                {
                  "internalType": "uint256[2]",
                  "name": "Y",
                  "type": "uint256[2]"
                }
              ],
              "internalType": "struct Pairing.G2Point",
              "name": "b",
              "type": "tuple"
            },
            {
              "components": [
                {
                  "internalType": "uint256",
                  "name": "X",
                  "type": "uint256"
                },
                {
                  "internalType": "uint256",
                  "name": "Y",
                  "type": "uint256"
                }
              ],
              "internalType": "struct Pairing.G1Point",
              "name": "c",
              "type": "tuple"
            }
          ],
          "internalType": "struct Verifier.Proof",
          "name": "proof",
          "type": "tuple"
        },
        {
          "internalType": "uint256[2]",
          "name": "input",
          "type": "uint256[2]"
        }
      ],
      "name": "verifyTx",
      "outputs": [
        {
          "internalType": "bool",
          "name": "r",
          "type": "bool"
        }
      ],
      "payable": false,
      "stateMutability": "view",
      "type": "function"
    },
    {
      "constant": true,
      "inputs": [
        {
          "internalType": "uint256",
          "name": "aX",
          "type": "uint256"
        },
        {
          "internalType": "uint256",
          "name": "aY",
          "type": "uint256"
        },
        {
          "internalType": "uint256[2]",
          "name": "bX",
          "type": "uint256[2]"
        },
        {
          "internalType": "uint256[2]",
          "name": "bY",
          "type": "uint256[2]"
        },
        {
          "internalType": "uint256",
          "name": "cX",
          "type": "uint256"
        },
        {
          "internalType": "uint256",
          "name": "cY",
          "type": "uint256"
        },
        {
          "internalType": "uint256[2]",
          "name": "input",
          "type": "uint256[2]"
        }
      ],
      "name": "verifyTxExt",
      "outputs": [
        {
          "internalType": "bool",
          "name": "",
          "type": "bool"
        }
      ],
      "payable": false,
      "stateMutability": "view",
      "type": "function"
    }
  ],
  "bytecode": "0x608060405234801561001057600080fd5b50611248806100206000396000f3fe608060405234801561001057600080fd5b50600436106100355760003560e01c8062829db81461003a57806343cd76fc1461006a575b600080fd5b610054600480360361004f919081019061109d565b61009a565b604051610061919061114c565b60405180910390f35b610084600480360361007f919081019061105f565b610115565b604051610091919061114c565b60405180910390f35b60006100a4610d0d565b604051806060016040528060405180604001604052808c81526020018b815250815260200160405180604001604052808a815260200189815250815260200160405180604001604052808881526020018781525081525090506101078184610115565b915050979650505050505050565b6000606060026040519080825280602002602001820160405280156101495781602001602082028038833980820191505090505b50905060008090505b60028110156101915783816002811061016757fe5b602002015182828151811061017857fe5b6020026020010181815250508080600101915050610152565b50600061019e82866101ba565b14156101ae5760019150506101b4565b60009150505b92915050565b6000807f30644e72e131a029b85045b68181585d2833e84879b9709143e1f593f000000190506101e8610d40565b6101f061032c565b905080608001515160018651011461020757600080fd5b61020f610d87565b6040518060400160405280600081526020016000815250905060008090505b86518110156102a5578387828151811061024457fe5b60200260200101511061025657600080fd5b610296826102918560800151600185018151811061027057fe5b60200260200101518a858151811061028457fe5b6020026020010151610779565b61080b565b9150808060010191505061022e565b506102c88183608001516000815181106102bb57fe5b602002602001015161080b565b905061030e856000015186602001516102e0846108bc565b85604001516102f28a604001516108bc565b876060015161030489600001516108bc565b8960200151610956565b61031e5760019350505050610326565b600093505050505b92915050565b610334610d40565b60405180604001604052807f03fd57a25a103b5608f05cc1bcc46e0ef848231669acbb8f922ef331dcc6df4f81526020017f04512885b429fc5b2c265d96f8b33079c8007a98b02eccef0e94d9d774ba183d8152508160000181905250604051806040016040528060405180604001604052807f2800146f07022a6d2a2bd03c995e4a42704a5c20d570efe141f28e23e92b167581526020017f20383cbdb1053d97947fbecc86680d2a3d46e3a62f70448af1cd0f07a3edc42f815250815260200160405180604001604052807f2d9ea2a7ab49699e824e1a22ba905c50d55a911aeb4bc3872a8635fbbb468f0081526020017f2712cc47cbc7d86c7d2613d539f8583c258624c54c69b43e858c01a48e2861d18152508152508160200181905250604051806040016040528060405180604001604052807f1f4ebf34c8b5fcf7321fdac474f1fbcbfd258f09ab63a0eeee3cbb4d07941e0881526020017f1e209a9ba68e1a3291869053a385e5635c02b65d28b09f4bf3413fc3ff2d7f16815250815260200160405180604001604052807f2212159a9f1367c23619d61ffaf958462c8e9eec608aed7006ab4700f0577aae81526020017e4cfb64061e6bbce352bf51fc629605ccb80cae9d63731ac96e24bd63e804c38152508152508160400181905250604051806040016040528060405180604001604052807f0c8f9e86300165f68663ed00ec2656845ac03b237de36ed56240f1cc7dbf1ecb81526020017f28f362be6072615239bd9db2eaa43885e1c19b939792aae2454c56dd11ce6970815250815260200160405180604001604052807f2e73dd0c90444e9df1b99ee2d6af2ca0b923aae31b20affe183d75c7156d388681526020017f0ef0569a7cc50abcc8be4eb1dba141250974c0e955ea7ed46ccf9f243fc5c82b8152508152508160600181905250600360405190808252806020026020018201604052801561061a57816020015b610607610da1565b8152602001906001900390816105ff5790505b50816080018190525060405180604001604052807f1ffbd43ffaa234975126b0c4165a89e1b4841ca2435df13c28ad017f58927f8181526020017f20207d67ffc9b1c98e356079598c34696afaf370382a9d9920a76729167536d9815250816080015160008151811061068957fe5b602002602001018190525060405180604001604052807f19a4a2072d16c3f699b171a99bad8a633658b1e8e2d3a7c843a6e4dcf913372e81526020017f15aa6026df8cfe36d9e174dd66cfa23fe716b06e22cb69a9d71e1c0c8748f4d181525081608001516001815181106106fa57fe5b602002602001018190525060405180604001604052807f09ada8613818af23454085a3af22e88507c2ecb5cdb50785c314a5613f5237a681526020017f071d854bb476bdca759c0558d6eb23946bdf3559b10bb56ea8b87c08b58f7472815250816080015160028151811061076b57fe5b602002602001018190525090565b610781610d87565b610789610dbb565b83600001518160006003811061079b57fe5b6020020181815250508360200151816001600381106107b657fe5b60200201818152505082816002600381106107cd57fe5b602002018181525050600060608360808460076107d05a03fa905080600081146107f6576107f8565bfe5b508061080357600080fd5b505092915050565b610813610d87565b61081b610ddd565b83600001518160006004811061082d57fe5b60200201818152505083602001518160016004811061084857fe5b60200201818152505082600001518160026004811061086357fe5b60200201818152505082602001518160036004811061087e57fe5b602002018181525050600060608360c08460066107d05a03fa905080600081146108a7576108a9565bfe5b50806108b457600080fd5b505092915050565b6108c4610d87565b60007f30644e72e131a029b85045b68181585d97816a916871ca8d3c208c16d87cfd47905060008360000151148015610901575060008360200151145b15610925576040518060400160405280600081526020016000815250915050610951565b6040518060400160405280846000015181526020018285602001518161094757fe5b0683038152509150505b919050565b60006060600460405190808252806020026020018201604052801561099557816020015b610982610da1565b81526020019060019003908161097a5790505b509050606060046040519080825280602002602001820160405280156109d557816020015b6109c2610dff565b8152602001906001900390816109ba5790505b5090508a826000815181106109e657fe5b602002602001018190525088826001815181106109ff57fe5b60200260200101819052508682600281518110610a1857fe5b60200260200101819052508482600381518110610a3157fe5b60200260200101819052508981600081518110610a4a57fe5b60200260200101819052508781600181518110610a6357fe5b60200260200101819052508581600281518110610a7c57fe5b60200260200101819052508381600381518110610a9557fe5b6020026020010181905250610aaa8282610aba565b9250505098975050505050505050565b60008151835114610aca57600080fd5b6000835190506000600682029050606081604051908082528060200260200182016040528015610b095781602001602082028038833980820191505090505b50905060008090505b83811015610caf57868181518110610b2657fe5b602002602001015160000151826000600684020181518110610b4457fe5b602002602001018181525050868181518110610b5c57fe5b602002602001015160200151826001600684020181518110610b7a57fe5b602002602001018181525050858181518110610b9257fe5b602002602001015160000151600160028110610baa57fe5b6020020151826002600684020181518110610bc157fe5b602002602001018181525050858181518110610bd957fe5b602002602001015160000151600060028110610bf157fe5b6020020151826003600684020181518110610c0857fe5b602002602001018181525050858181518110610c2057fe5b602002602001015160200151600160028110610c3857fe5b6020020151826004600684020181518110610c4f57fe5b602002602001018181525050858181518110610c6757fe5b602002602001015160200151600060028110610c7f57fe5b6020020151826005600684020181518110610c9657fe5b6020026020010181815250508080600101915050610b12565b50610cb8610e25565b6000602082602086026020860160086107d05a03fa90508060008114610cdd57610cdf565bfe5b5080610cea57600080fd5b600082600060018110610cf957fe5b602002015114159550505050505092915050565b6040518060600160405280610d20610da1565b8152602001610d2d610dff565b8152602001610d3a610da1565b81525090565b6040518060a00160405280610d53610da1565b8152602001610d60610dff565b8152602001610d6d610dff565b8152602001610d7a610dff565b8152602001606081525090565b604051806040016040528060008152602001600081525090565b604051806040016040528060008152602001600081525090565b6040518060600160405280600390602082028038833980820191505090505090565b6040518060800160405280600490602082028038833980820191505090505090565b6040518060400160405280610e12610e47565b8152602001610e1f610e47565b81525090565b6040518060200160405280600190602082028038833980820191505090505090565b6040518060400160405280600290602082028038833980820191505090505090565b600082601f830112610e7a57600080fd5b6002610e8d610e8882611194565b611167565b91508183856020840282011115610ea357600080fd5b60005b83811015610ed35781610eb9888261104a565b845260208401935060208301925050600181019050610ea6565b5050505092915050565b600082601f830112610eee57600080fd5b6002610f01610efc826111b6565b611167565b91508183856020840282011115610f1757600080fd5b60005b83811015610f475781610f2d888261104a565b845260208401935060208301925050600181019050610f1a565b5050505092915050565b600060408284031215610f6357600080fd5b610f6d6040611167565b90506000610f7d8482850161104a565b6000830152506020610f918482850161104a565b60208301525092915050565b600060808284031215610faf57600080fd5b610fb96040611167565b90506000610fc984828501610e69565b6000830152506040610fdd84828501610e69565b60208301525092915050565b60006101008284031215610ffc57600080fd5b6110066060611167565b9050600061101684828501610f51565b600083015250604061102a84828501610f9d565b60208301525060c061103e84828501610f51565b60408301525092915050565b600081359050611059816111ee565b92915050565b600080610140838503121561107357600080fd5b600061108185828601610fe9565b92505061010061109385828601610edd565b9150509250929050565b6000806000806000806000610140888a0312156110b957600080fd5b60006110c78a828b0161104a565b97505060206110d88a828b0161104a565b96505060406110e98a828b01610edd565b95505060806110fa8a828b01610edd565b94505060c061110b8a828b0161104a565b93505060e061111c8a828b0161104a565b92505061010061112e8a828b01610edd565b91505092959891949750929550565b611146816111d8565b82525050565b6000602082019050611161600083018461113d565b92915050565b6000604051905081810181811067ffffffffffffffff8211171561118a57600080fd5b8060405250919050565b600067ffffffffffffffff8211156111ab57600080fd5b602082029050919050565b600067ffffffffffffffff8211156111cd57600080fd5b602082029050919050565b60008115159050919050565b6000819050919050565b6111f7816111e4565b811461120257600080fd5b5056fea365627a7a723158206cb40996e315ec881e0f768448fa3c71630508993964966c68603b21a3b50e846c6578706572696d656e74616cf564736f6c63430005100040",
  "source": "pragma solidity >=0.4.21 <0.6.0;\npragma experimental ABIEncoderV2;\nimport \"./verifier.sol\";\nimport \"./ERC721Mintable.sol\";\n\n// TODO define a contract call to the zokrates generated solidity contract <Verifier> or <renamedVerifier>\n\ncontract SquareVerifier is Verifier {\n\n    function verifyTxExt(uint aX, uint aY, uint[2] memory bX, uint[2] memory bY, uint cX, uint cY, uint[2] memory input) public view returns(bool) {\n        Proof memory proof = Proof({\n            a:Pairing.G1Point({X: aX, Y: aY}),\n            b:Pairing.G2Point({X: bX, Y: bY}),\n            c:Pairing.G1Point({X: cX, Y: cY})\n        });\n\n        return verifyTx(proof, input);\n    }\n\n}\n\n\n// TODO define another contract named SolnSquareVerifier that inherits from your ERC721Mintable class\ncontract SolnSquareVerifier is CustomERC721Token{\n\n    SquareVerifier verifierProxy;\n       \n    // TODO define a solutions struct that can hold an index & an address\n    struct Solution {\n        uint256 tokenId;\n        address to;\n        uint aX; uint aY; uint[2] bX; uint[2] bY; uint cX; uint cY;\n        uint[2] input;\n    }\n\n    // TODO define an array of the above struct\n    Solution[] solutions;\n\n    // TODO define a mapping to store unique solutions submitted\n    mapping(bytes32 => Solution) private submittedSolutions;\n\n    // TODO Create an event to emit when a solution is added\n    event SolutionAdded(uint256 tokenId, address _address);\n\n    constructor(address verifierAddress) CustomERC721Token() public {\n      verifierProxy = SquareVerifier(verifierAddress);\n    }\n\n    // TODO Create a function to add the solutions to the array and emit the event\n    function addSolution(address to, uint256 tokenId, uint aX, uint aY, uint[2] memory bX, uint[2] memory bY, uint cX, uint cY, uint[2] memory input) internal{\n        bytes32 key = keccak256(abi.encodePacked(aX,aY,bX,bY,cX,cY,input));\n\n        Solution memory solution = Solution({\n            tokenId: tokenId,\n            to: to,\n            aX: aX,\n            aY: aY,\n            bX: bX,\n            bY: bY,\n            cX: cX,\n            cY: cY,\n            input: input\n        });\n\n        solutions.push(solution);\n\n        submittedSolutions[key] = solution;\n\n        emit SolutionAdded(tokenId, to);\n    }    \n\n    // TODO Create a function to mint new NFT only after the solution has been verified\n    //  - make sure the solution is unique (has not been used before)\n    //  - make sure you handle metadata as well as tokenSuplly\n    function mintVerifiedToken(address to, uint256 tokenId, uint aX, uint aY, uint[2] memory bX, uint[2] memory bY, uint cX, uint cY, uint[2] memory input) public {\n        bytes32 key = keccak256(abi.encodePacked(aX,aY,bX,bY,cX,cY,input));\n        require(submittedSolutions[key].tokenId == 0, 'Solution already submitted' );\n        \n        Verifier.Proof memory proof = Verifier.Proof({\n            a:Pairing.G1Point({X: aX, Y: aY}),\n            b:Pairing.G2Point({X: bX, Y: bY}),\n            c:Pairing.G1Point({X: cX, Y: cY})\n        });\n\n        require(verifierProxy.verifyTx(proof, input), 'Solution is incorrect' );\n        //require(verifierProxy.verifyTxExt(aX,aY,bX,bY,cX,cY, input), 'Solution is incorrect');\n\n        addSolution(to, tokenId, aX,aY,bX,bY,cX,cY, input);\n\n        super.mint(to, tokenId);\n    \n    }\n}\n",
  "sourcePath": "/home/alex/proiecte/p6/eth-contracts/contracts/SolnSquareVerifier.sol",
  "compiler": {
    "name": "solc",
    "version": "0.5.16+commit.9c3226ce.Emscripten.clang"
  },
  "schemaVersion": "3.4.3",
  "updatedAt": "2022-01-25T19:38:19.383Z",
  "devdoc": {
    "methods": {}
  },
  "userdoc": {
    "methods": {}
  }
}