{
  "contractName": "SquareVerifier",
  "abi": [
    {
      "constant": true,
      "inputs": [
        {
          "components": [
            {
              "components": [
                {
                  "internalType": "uint256",
                  "name": "X",
                  "type": "uint256"
                },
                {
                  "internalType": "uint256",
                  "name": "Y",
                  "type": "uint256"
                }
              ],
              "internalType": "struct Pairing.G1Point",
              "name": "a",
              "type": "tuple"
            },
            {
              "components": [
                {
                  "internalType": "uint256[2]",
                  "name": "X",
                  "type": "uint256[2]"
                },
                {
                  "internalType": "uint256[2]",
                  "name": "Y",
                  "type": "uint256[2]"
                }
              ],
              "internalType": "struct Pairing.G2Point",
              "name": "b",
              "type": "tuple"
            },
            {
              "components": [
                {
                  "internalType": "uint256",
                  "name": "X",
                  "type": "uint256"
                },
                {
                  "internalType": "uint256",
                  "name": "Y",
                  "type": "uint256"
                }
              ],
              "internalType": "struct Pairing.G1Point",
              "name": "c",
              "type": "tuple"
            }
          ],
          "internalType": "struct Verifier.Proof",
          "name": "proof",
          "type": "tuple"
        },
        {
          "internalType": "uint256[2]",
          "name": "input",
          "type": "uint256[2]"
        }
      ],
      "name": "verifyTx",
      "outputs": [
        {
          "internalType": "bool",
          "name": "r",
          "type": "bool"
        }
      ],
      "payable": false,
      "stateMutability": "view",
      "type": "function"
    }
  ],
  "bytecode": "0x608060405234801561001057600080fd5b506110c0806100206000396000f3fe608060405234801561001057600080fd5b506004361061002b5760003560e01c806343cd76fc14610030575b600080fd5b61004a60048036036100459190810190610f77565b610060565b6040516100579190610fc4565b60405180910390f35b6000606060026040519080825280602002602001820160405280156100945781602001602082028038833980820191505090505b50905060008090505b60028110156100dc578381600281106100b257fe5b60200201518282815181106100c357fe5b602002602001018181525050808060010191505061009d565b5060006100e98286610105565b14156100f95760019150506100ff565b60009150505b92915050565b6000807f30644e72e131a029b85045b68181585d2833e84879b9709143e1f593f00000019050610133610c58565b61013b610277565b905080608001515160018651011461015257600080fd5b61015a610c9f565b6040518060400160405280600081526020016000815250905060008090505b86518110156101f0578387828151811061018f57fe5b6020026020010151106101a157600080fd5b6101e1826101dc856080015160018501815181106101bb57fe5b60200260200101518a85815181106101cf57fe5b60200260200101516106c4565b610756565b91508080600101915050610179565b5061021381836080015160008151811061020657fe5b6020026020010151610756565b90506102598560000151866020015161022b84610807565b856040015161023d8a60400151610807565b876060015161024f8960000151610807565b89602001516108a1565b6102695760019350505050610271565b600093505050505b92915050565b61027f610c58565b60405180604001604052807f03fd57a25a103b5608f05cc1bcc46e0ef848231669acbb8f922ef331dcc6df4f81526020017f04512885b429fc5b2c265d96f8b33079c8007a98b02eccef0e94d9d774ba183d8152508160000181905250604051806040016040528060405180604001604052807f2800146f07022a6d2a2bd03c995e4a42704a5c20d570efe141f28e23e92b167581526020017f20383cbdb1053d97947fbecc86680d2a3d46e3a62f70448af1cd0f07a3edc42f815250815260200160405180604001604052807f2d9ea2a7ab49699e824e1a22ba905c50d55a911aeb4bc3872a8635fbbb468f0081526020017f2712cc47cbc7d86c7d2613d539f8583c258624c54c69b43e858c01a48e2861d18152508152508160200181905250604051806040016040528060405180604001604052807f1f4ebf34c8b5fcf7321fdac474f1fbcbfd258f09ab63a0eeee3cbb4d07941e0881526020017f1e209a9ba68e1a3291869053a385e5635c02b65d28b09f4bf3413fc3ff2d7f16815250815260200160405180604001604052807f2212159a9f1367c23619d61ffaf958462c8e9eec608aed7006ab4700f0577aae81526020017e4cfb64061e6bbce352bf51fc629605ccb80cae9d63731ac96e24bd63e804c38152508152508160400181905250604051806040016040528060405180604001604052807f0c8f9e86300165f68663ed00ec2656845ac03b237de36ed56240f1cc7dbf1ecb81526020017f28f362be6072615239bd9db2eaa43885e1c19b939792aae2454c56dd11ce6970815250815260200160405180604001604052807f2e73dd0c90444e9df1b99ee2d6af2ca0b923aae31b20affe183d75c7156d388681526020017f0ef0569a7cc50abcc8be4eb1dba141250974c0e955ea7ed46ccf9f243fc5c82b8152508152508160600181905250600360405190808252806020026020018201604052801561056557816020015b610552610cb9565b81526020019060019003908161054a5790505b50816080018190525060405180604001604052807f1ffbd43ffaa234975126b0c4165a89e1b4841ca2435df13c28ad017f58927f8181526020017f20207d67ffc9b1c98e356079598c34696afaf370382a9d9920a76729167536d981525081608001516000815181106105d457fe5b602002602001018190525060405180604001604052807f19a4a2072d16c3f699b171a99bad8a633658b1e8e2d3a7c843a6e4dcf913372e81526020017f15aa6026df8cfe36d9e174dd66cfa23fe716b06e22cb69a9d71e1c0c8748f4d1815250816080015160018151811061064557fe5b602002602001018190525060405180604001604052807f09ada8613818af23454085a3af22e88507c2ecb5cdb50785c314a5613f5237a681526020017f071d854bb476bdca759c0558d6eb23946bdf3559b10bb56ea8b87c08b58f747281525081608001516002815181106106b657fe5b602002602001018190525090565b6106cc610c9f565b6106d4610cd3565b8360000151816000600381106106e657fe5b60200201818152505083602001518160016003811061070157fe5b602002018181525050828160026003811061071857fe5b602002018181525050600060608360808460076107d05a03fa9050806000811461074157610743565bfe5b508061074e57600080fd5b505092915050565b61075e610c9f565b610766610cf5565b83600001518160006004811061077857fe5b60200201818152505083602001518160016004811061079357fe5b6020020181815250508260000151816002600481106107ae57fe5b6020020181815250508260200151816003600481106107c957fe5b602002018181525050600060608360c08460066107d05a03fa905080600081146107f2576107f4565bfe5b50806107ff57600080fd5b505092915050565b61080f610c9f565b60007f30644e72e131a029b85045b68181585d97816a916871ca8d3c208c16d87cfd4790506000836000015114801561084c575060008360200151145b1561087057604051806040016040528060008152602001600081525091505061089c565b6040518060400160405280846000015181526020018285602001518161089257fe5b0683038152509150505b919050565b6000606060046040519080825280602002602001820160405280156108e057816020015b6108cd610cb9565b8152602001906001900390816108c55790505b5090506060600460405190808252806020026020018201604052801561092057816020015b61090d610d17565b8152602001906001900390816109055790505b5090508a8260008151811061093157fe5b6020026020010181905250888260018151811061094a57fe5b6020026020010181905250868260028151811061096357fe5b6020026020010181905250848260038151811061097c57fe5b6020026020010181905250898160008151811061099557fe5b602002602001018190525087816001815181106109ae57fe5b602002602001018190525085816002815181106109c757fe5b602002602001018190525083816003815181106109e057fe5b60200260200101819052506109f58282610a05565b9250505098975050505050505050565b60008151835114610a1557600080fd5b6000835190506000600682029050606081604051908082528060200260200182016040528015610a545781602001602082028038833980820191505090505b50905060008090505b83811015610bfa57868181518110610a7157fe5b602002602001015160000151826000600684020181518110610a8f57fe5b602002602001018181525050868181518110610aa757fe5b602002602001015160200151826001600684020181518110610ac557fe5b602002602001018181525050858181518110610add57fe5b602002602001015160000151600160028110610af557fe5b6020020151826002600684020181518110610b0c57fe5b602002602001018181525050858181518110610b2457fe5b602002602001015160000151600060028110610b3c57fe5b6020020151826003600684020181518110610b5357fe5b602002602001018181525050858181518110610b6b57fe5b602002602001015160200151600160028110610b8357fe5b6020020151826004600684020181518110610b9a57fe5b602002602001018181525050858181518110610bb257fe5b602002602001015160200151600060028110610bca57fe5b6020020151826005600684020181518110610be157fe5b6020026020010181815250508080600101915050610a5d565b50610c03610d3d565b6000602082602086026020860160086107d05a03fa90508060008114610c2857610c2a565bfe5b5080610c3557600080fd5b600082600060018110610c4457fe5b602002015114159550505050505092915050565b6040518060a00160405280610c6b610cb9565b8152602001610c78610d17565b8152602001610c85610d17565b8152602001610c92610d17565b8152602001606081525090565b604051806040016040528060008152602001600081525090565b604051806040016040528060008152602001600081525090565b6040518060600160405280600390602082028038833980820191505090505090565b6040518060800160405280600490602082028038833980820191505090505090565b6040518060400160405280610d2a610d5f565b8152602001610d37610d5f565b81525090565b6040518060200160405280600190602082028038833980820191505090505090565b6040518060400160405280600290602082028038833980820191505090505090565b600082601f830112610d9257600080fd5b6002610da5610da08261100c565b610fdf565b91508183856020840282011115610dbb57600080fd5b60005b83811015610deb5781610dd18882610f62565b845260208401935060208301925050600181019050610dbe565b5050505092915050565b600082601f830112610e0657600080fd5b6002610e19610e148261102e565b610fdf565b91508183856020840282011115610e2f57600080fd5b60005b83811015610e5f5781610e458882610f62565b845260208401935060208301925050600181019050610e32565b5050505092915050565b600060408284031215610e7b57600080fd5b610e856040610fdf565b90506000610e9584828501610f62565b6000830152506020610ea984828501610f62565b60208301525092915050565b600060808284031215610ec757600080fd5b610ed16040610fdf565b90506000610ee184828501610d81565b6000830152506040610ef584828501610d81565b60208301525092915050565b60006101008284031215610f1457600080fd5b610f1e6060610fdf565b90506000610f2e84828501610e69565b6000830152506040610f4284828501610eb5565b60208301525060c0610f5684828501610e69565b60408301525092915050565b600081359050610f7181611066565b92915050565b6000806101408385031215610f8b57600080fd5b6000610f9985828601610f01565b925050610100610fab85828601610df5565b9150509250929050565b610fbe81611050565b82525050565b6000602082019050610fd96000830184610fb5565b92915050565b6000604051905081810181811067ffffffffffffffff8211171561100257600080fd5b8060405250919050565b600067ffffffffffffffff82111561102357600080fd5b602082029050919050565b600067ffffffffffffffff82111561104557600080fd5b602082029050919050565b60008115159050919050565b6000819050919050565b61106f8161105c565b811461107a57600080fd5b5056fea365627a7a72315820d330305cf3f1c28ffd6ee8dfb1b06886f1dfaecdbbe10b2b1833e7ce45143b5f6c6578706572696d656e74616cf564736f6c63430005100040",
  "source": "pragma solidity >=0.4.21 <0.6.0;\npragma experimental ABIEncoderV2;\nimport \"./verifier.sol\";\nimport \"./ERC721Mintable.sol\";\n\n// TODO define a contract call to the zokrates generated solidity contract <Verifier> or <renamedVerifier>\n\ncontract SquareVerifier is Verifier {\n    \n}\n\n\n// TODO define another contract named SolnSquareVerifier that inherits from your ERC721Mintable class\ncontract SolnSquareVerifier is CustomERC721Token{\n\n    // TODO define a solutions struct that can hold an index & an address\n    struct Solution {\n        uint256 index;\n        address _address;\n    }\n\n    // TODO define an array of the above struct\n    Solution[] solutions;\n\n    // TODO define a mapping to store unique solutions submitted\n\n    // TODO Create an event to emit when a solution is added\n    event SolutionAdded(uint256 index, address _address);\n\n    // TODO Create a function to add the solutions to the array and emit the event\n    function addSolution(uint256 index, address _address) internal{\n\n    }\n\n    // TODO Create a function to mint new NFT only after the solution has been verified\n    //  - make sure the solution is unique (has not been used before)\n    //  - make sure you handle metadata as well as tokenSuplly\n    function mintNewToken() public {\n    \n    }\n}\n",
  "sourcePath": "/home/alex/proiecte/p6/eth-contracts/contracts/SolnSquareVerifier.sol",
  "compiler": {
    "name": "solc",
    "version": "0.5.16+commit.9c3226ce.Emscripten.clang"
  },
  "schemaVersion": "3.4.3",
  "updatedAt": "2022-01-13T21:20:02.773Z",
  "networkType": "ethereum",
  "devdoc": {
    "methods": {}
  },
  "userdoc": {
    "methods": {}
  }
}